:020000040800F2
:1000000000500020CD010008D1010008D3010008F4
:10001000D5010008D7010008D90100080000000040
:10002000000000000000000000000000DB010008EC
:10003000DD01000800000000DF010008C92D0008F4
:10004000E3010008E3010008E3010008E301000800
:10005000E3010008E3010008E3010008E3010008F0
:10006000E3010008E3010008E3010008811500082E
:10007000E3010008E3010008E3010008E3010008D0
:10008000E3010008E30100085D150008E301000832
:10009000E3010008E3010008E301000889200008EB
:1000A000E3010008E3010008E30100083D26000821
:1000B000E30100088D220008011F0008E301000889
:1000C000E3010008E3010008E3010008E301000880
:1000D000E3010008892D0008E3010008852D0008D0
:1000E000E3010008E3010008E3010008000000004C
:1000F0000000000000000000000000000000000000
:1001000000000000000000005FF808F107B5244A75
:10011000244B9A424FF0000302D242F8043BF7E727
:10012000214A22499818884204D2214959589950A5
:100130000433F5E701F0FCF8684601A901F0F0F896
:100140001C4D1D4B0024ED1AAD101E46AC4204DAC6
:1001500056F8242090470134F8E7184B184D002436
:10016000ED1AAD101E46AC4204DA56F82420904732
:100170000134F8E79DE8030002F0E4F8114D124C59
:100180000646641BA41005EB8405002C04DD55F81D
:10019000043D013C9847F8E7304601F09EF800BF67
:1001A000A80000204C13002000000020A800002020
:1001B000203C0008E4010008E4010008E401000814
:1001C000E4010008E4010008E4010008FFF79EBF15
:1001D000FEE7FEE7FEE7FEE7FEE7FEE7FEE7FEE7F7
:0401E000FEE7FEE751
:1001E400C27810B50378FAB1154A4478D26803F19D
:1001F4006043D243C2F30222C2F1040104FA01F1C2
:100204000F2424FA02F2847803F5614322400A435E
:100214001201D2B283F8002303780122590903F0B2
:100224001F0302FA03F306E05909012203F01F0336
:1002340002FA03F32031034A42F8213010BD00BF13
:1002440000ED00E000E100E043680A6823F4702355
:1002540023F4807313430A7910B543EA02234360FD
:100264008A68CB6884681A43084B234013434A794D
:1002740043EA420383600B7CC26A013B22F47002AE
:10028400DBB242EA0353C36210BD00BFFDF7F1FFC6
:10029400836811B143F0010301E023F0010383609B
:1002A4007047836811B143F4807301E023F48073D1
:1002B40083607047836843F00803836070478068F5
:1002C400C0F3C0007047836843F004038360704741
:1002D4008068C0F380007047836811B143F4A003C1
:1002E40001E023F4A00383607047092970B50DD998
:1002F400A1F10A0404EB44040725A540A340C66801
:1003040026EA050545EA0304C4600BE001EB410459
:100314000725A54003FA04F4066926EA050545EA1B
:1003240004030361062A0CD8013A02EB82021F235C
:10033400934001FA02F2446B24EA03031A43426332
:1003440070BD0C2A0CD8073A02EB82021F2393409B
:1003540001FA02F2046B24EA03031A43026370BD38
:100364000D3A02EB82021F23934001FA02F2C46A9F
:1003740024EA03031A43C26270BD4368006810EAAA
:10038400112004D0C9B219420CBF002001207047CB
:100394006FEA11210160704702684FF6FE73134043
:1003A40003600023036043608360C3602A4B984268
:1003B40022D02A4B984229D0294B984230D0294B3D
:1003C400984237D0284B98423ED0284B984206D1C9
:1003D40053F8682C42F4700243F8682C7047244B9D
:1003E400984206D153F87C2C42F0706243F87C2C7E
:1003F4007047204B984206D153F8042C42F00F0268
:1004040043F8042C70471C4B984206D153F8182C1F
:1004140042F0F00243F8182C7047184B984206D16A
:1004240053F82C2C42F4706243F82C2C7047144B74
:10043400984206D153F8402C42F4704243F8402CC1
:100444007047104B984205D153F8542C42F4702253
:1004540043F8542C704700BF080002401C000240BF
:100464003000024044000240580002406C00024048
:1004740080000240080402401C0402403004024090
:1004840044040240580402408A6810B50C6A0368A8
:1004940014430A6923F4FF4314434A6923F07003A5
:1004A40014438A691443CA6914434A6A14438A6A1E
:1004B400224313430360CB6843600B6883604B683B
:1004C400C36010BD19B1036843F0010303E002687F
:1004D4004FF6FE7313400360704703680AB1194373
:1004E40001E023EA0101016070470000C3004CBF32
:1004F400034B044B1B6803420CBF002001207047D0
:100504000004024000000240C3004CBF034B044BF4
:100514001B6803420CBF0020012070470004024006
:1005240000000240C3004CBF014B024B58607047AF
:100534000004024000000240837930B5016802796A
:1005440043B3194BCC431D6802F1804225401D6022
:100554005D6802F582322C405C60146821431160AE
:1005640002689C68D1430C409C60DC682140D960DF
:100574004179102906D1996811439960D9680A43D1
:10058400DA6030BD01F1804303F5823319680A4310
:100594001A6030BD02F1804303F582331A6822EAFF
:1005A4000101196030BD00BF00040140054B1A6809
:1005B4005B69034004D010420CBF00200120704747
:1005C4001846704700040140014B5861704700BF52
:1005D40000040140034B044A5A6002F188325A6015
:1005E400704700BF0020024023016745024B1A698F
:1005F40042F080021A61704700200240084BDA681A
:10060400D10709D4DA68520708D4DB6813F0100F55
:100614000CBF04200320704701207047022070475C
:100624000020024010B50446FFF7E8FF012806D178
:100634001CB1FFF7E3FF013CF8E7052010BD002CD7
:1006440008BF052010BD000038B505464FF4302022
:10065400FFF7E8FF042812D1094C4FF43020236936
:1006640043F0020323616561236943F0400323617E
:10067400FFF7D8FF226941F6FD731340236138BDAB
:100684000020024070B505464FF400500E46FFF7B7
:10069400C9FF04280ED1084C4FF40050236943F0DD
:1006A400010323612E80FFF7BDFF226941F6FE732B
:1006B4001340236170BD00BF00200240CB78F0B529
:1006C400DA0648BF8A78098803F00F0548BF154346
:1006D40011F0FF0F1DD0046800220127974007EA9C
:1006E4000106BE4211D197004FF00F0C0CFA07FC23
:1006F40005FA07F724EA0C04282B44EA070401D17D
:10070400466102E0482B08BF06610132082AE4D1A1
:100714000460FF291FD94468002202F1080601275A
:10072400B74007EA0106BE4211D197004FF00F0C03
:100734000CFA07FC05FA07F724EA0C04282B44EA10
:10074400070401D1466102E0482B08BF066101326B
:10075400082AE2D14460F0BD4FF6FF730380022300
:1007640083700423C3707047836819420CBF002050
:1007740001207047806880B2704701617047416111
:10078400704701F003039B000F229A40984001F048
:10079400FC0101F1804101F5803110B58C6824EA37
:1007A40002028A608A6802438A6010BD1C4B10B53D
:1007B4005A6802F00C02042A01D0082A01D0194A0E
:1007C4000EE05A685968C2F38342CC0302F1020274
:1007D40002D55968890301D5134900E011494A43F8
:1007E40002605A681149C2F303128C5C0268E24049
:1007F40042605C68C4F302240C5D22FA04F4846051
:100804005C68C4F3C224095DCA40C2605B680849DD
:10081400C3F38133CB5CB2FBF3F2026110BD00BFC2
:100824000010024000127A0000093D00040000207C
:1008340000000020044B5A6909B1104301E022EA88
:1008440000005861704700BF00100240044B9A69D1
:1008540009B1104301E022EA00009861704700BF2B
:1008640000100240044BDA6909B1104301E022EAA6
:100874000000D861704700BF00100240044BDA68E2
:1008840009B1104301E022EA0000D860704700BFBC
:1008940000100240044B1A6909B1104301E022EA36
:1008A40000001861704700BF0010024030B5048C8E
:1008B40024F001042404240C0484058B048CADB2BC
:1008C40025F0F3052A4342EA03139DB2104BA4B268
:1008D400984215D003F50063984211D0B0F1804FCF
:1008E4000ED0A3F5983398420AD003F5806398425A
:1008F40006D003F58063984218BF24F00A0401D19E
:1009040024F0020444F0010421430583018430BD32
:10091400002C014030B5048C24F010042404240C71
:100924000484048B058C24F440742405240D44EAC7
:10093400022242EA0333144AADB290429BB212D06F
:1009440002F5006290420ED0B0F1804F0BD0A2F5B8
:100954009832904207D002F58062904203D002F5AB
:100964008062904207D125F0200545F0100545EA44
:10097400011189B204E025F0A00545F010052943D2
:100984000383018430BD00BF002C014008B55A4BDD
:10099400984207D14FF400600121FFF76FFF4FF435
:1009A4000060A2E0B0F1804F05D101200146FFF7BD
:1009B40071FF012007E0514B984209D10220012127
:1009C400FFF768FF02200021BDE80840FFF762BF7F
:1009D4004B4B984205D104200121FFF75BFF042013
:1009E400F1E7484B984205D108200121FFF752FF57
:1009F4000820E8E7444B984205D110200121FFF775
:100A040049FF1020DFE7414B984205D12020012106
:100A1400FFF740FF2020D6E73D4B984207D14FF423
:100A240000500121FFF72AFF4FF400505DE0394BDD
:100A3400984207D14FF400200121FFF71FFF4FF424
:100A4400002052E0344B984207D14FF4801001212A
:100A5400FFF714FF4FF4801047E0304B984207D162
:100A64004FF400100121FFF709FF4FF400103CE0A0
:100A74002B4B984205D140200121FFF70BFF40206A
:100A8400A1E7284B984205D180200121FFF702FFFE
:100A9400802098E7244B984207D14FF480700121BD
:100AA400FFF7F8FE4FF480708DE7204B984207D192
:100AB4004FF480300121FFF7E1FE4FF4803014E061
:100AC4001B4B984207D14FF400300121FFF7D6FEAB
:100AD4004FF4003009E0174B98420BD14FF48020BB
:100AE4000121FFF7CBFE4FF480200021BDE8084030
:100AF400FFF7C4BE08BD00BF002C01400004004045
:100B040000080040000C00400010004000140040A9
:100B140000340140004C01400050014000540140A9
:100B240000180040001C004000200040004001402C
:100B34000044014000480140224A038890429BB28D
:100B440012D002F5006290420ED0B0F1804F0BD06B
:100B5400A2F59832904207D002F58062904203D009
:100B640002F58062904203D14A8823F07003134354
:100B7400154A904208D002F58062904204D023F4D2
:100B84004073CA889BB2134303808B8883850B8888
:100B940003850C4B98420FD003F5006398420BD0A9
:100BA40003F54063984207D003F58063984203D06D
:100BB40003F58063984201D10B7A03860123838273
:100BC400704700BF002C014000100040038C70B53A
:100BD40023F001031B041B0C0384038C8488028B05
:100BE4000D8822F073021204120C2A434E880D89D8
:100BF40023F002031B043543ADB21B0C2B43144DED
:100C0400A4B2A8420FD005F50065A8420BD005F5A3
:100C14004065A84207D005F58065A84203D005F5D4
:100C24008065A8420ED14D8923F008032B438D889B
:100C340023F004032B43CE898D8924F44074354377
:100C4400ADB22C4384800283CA888286038470BD3B
:100C5400002C0140038C30B523F010031B041B0C43
:100C64000384038C8288048B0D8824F4E6442404D2
:100C7400240C23F0200344EA05241B040D891B0CD7
:100C840043EA05134D8892B243EA0513124DA4B208
:100C9400A8429BB203D005F50065A84215D14D8941
:100CA40023F080039BB243EA05134FF6BF751D4042
:100CB4008B8822F4406245EA03138D899BB242EA91
:100CC4008502CD8942EA850292B28280CA88048371
:100CD4000287038430BD00BF002C0140038C30B573
:100CE40023F480731B041B0C0384038C8288848B81
:100CF4000D8824F073042404240C23F400732C437F
:100D04001B040D891B0C43EA05234D8892B243EA68
:100D14000523124D9BB2A84203D005F50065A842F5
:100D240015D14D8923F400639BB243EA05234FF6A2
:100D3400FF351D408B8822F4405245EA03238D89F8
:100D44009BB242EA0512CD8942EA051292B2828030
:100D5400CA8884838287038430BD00BF002C01408D
:100D6400038C30B523F480531B041B0C0384038CC5
:100D74008488828B0D8822F4E6421204120C23F438
:100D8400005342EA05221B040D891B0C43EA053378
:100D94004D88A4B243EA05330A4D92B2A8429BB2ED
:100DA40003D005F50065A84205D18D8924F480445B
:100DB40044EA8514A4B284808283CA88A0F84020BF
:100DC400038430BD002C01404A880B8813438A8871
:100DD4001343CA8813430A8913434A8913438A89EC
:100DE40013439BB2A0F8443070474FF6FF738380DF
:100DF40000230380C380438003727047038819B1C2
:100E04009BB243F0010303E023F001031B041B0C1A
:100E140003807047B0F8443029B16FEA43436FEA66
:100E240053439BB201E0C3F30E03A0F84430704770
:100E340083899BB20AB1194301E023EA010181814C
:100E44007047038923F070031B041B0C19430181B1
:100E5400704770B50589048B068C24F44074B6B2CF
:100E640024F0030426F0220625F007052404324367
:100E74002D04240C2D0C44F4807442EA03132943FA
:100E840044F001049EB201810483068470BD0123F1
:100E94008B408A4010B5048CA4B224EA0303038473
:100EA400038C13439BB2038410BD04238B408A40FC
:100EB40010B5048CA4B224EA03030384038C134303
:100EC4009BB2038410BD30B501248C40058C00F125
:100ED4001803ADB225EA0404048421F0080030B9F3
:100EE4004908585820F070005850585809E00439FF
:100EF400C1F34E01C858120220F4E040C850C8584B
:100F040092B20243CA5030BD838819B19BB243F0F8
:100F1400800303E023F080031B041B0C83807047D1
:100F2400838823F070031B041B0C838083889BB28B
:100F3400194381807047038923F007031B041B0CAA
:100F4400038103899BB219430181704781847047EF
:100F5400038B23F00C031B041B0C0383038B9BB236
:100F6400194301837047038B23F440631B041B0C58
:100F74000383038B9BB243EA01218BB20383704743
:100F8400F8B50C464988A2880029B4F800E014BFDB
:100F940000270227012A054614BF012602262389B9
:100FA400BEF1000F11D1FFF781FC2846E188FFF75D
:100FB400CFFF2846394632462389FFF7ABFC284643
:100FC400E188BDE8F840FFF7CEBFFFF7A3FC284651
:100FD400E188FFF7C8FF2846394632462389FFF7E0
:100FE40065FC2846E188BDE8F840FFF7B1BF838B74
:100FF40023F00C031B041B0C8383838B9BB21943C8
:1010040081837047838B23F440631B041B0C83830D
:10101400838B9BB243EA01218BB283837047000028
:1010240070B50E880D4604464988AA882B893EB9B6
:10103400FFF73CFC2046E988BDE87040FFF788BF15
:10104400042E07D1FFF766FC2046E988BDE870400E
:10105400FFF789BF082EEE88058C39D125F48075F9
:101064002D042D0C0584808B258C80B220F0F30098
:1010740040EA03139BB21A43344BADB29C4212D0E4
:1010840003F500639C420ED0B4F1804F0BD0A3F55E
:1010940098339C4207D003F580639C4203D003F548
:1010A40080639C4207D125F4007545EA012189B289
:1010B40041F4807104E025F4206541F480712943F2
:1010C400A283204621843146BDE87040FFF78FBFDC
:1010D40025F480552D042D0C0584808B258C20F45B
:1010E40040700005000D40EA0220184A40EA03332C
:1010F4009442ADB29BB212D002F5006294420ED07B
:10110400B4F1804F0BD0A2F59832944207D002F587
:101114008062944203D002F58062944207D125F4A0
:10112400005242EA013292B242F4805205E047F69C
:10113400FF522A4041F480510A43A383204622846B
:101144003146BDE87040FFF75DBF00BF002C014091
:10115400C94389B201827047038A828911EA030074
:1011640092B203D011420CBF002001207047C94342
:1011740089B2018270470000038ACA889BB223F4B3
:101184004053134330B503820D4682890989AB88E5
:1011940092B20B43698922F4B0520B4322F00C0241
:1011A40013439BB28381838AAA899BB223F440733D
:1011B40087B013430446838201A8FFF7F7FA17495F
:1011C400049A039B8C4208BF1346A289192112B2C8
:1011D4005943002A2A684FF06403B4BF52009200B6
:1011E400B1FBF2F1B1FBF3F21201100903FB101190
:1011F400A08900B2002806DAC9003231B1FBF3F34A
:1012040003F0070305E009013231B1FBF3F303F006
:101214000F031A4392B2228107B030BD0038014057
:10122400838919B19BB243F4005303E023F40053C0
:101234001B041B0C83817047C1F3421310B50124B6
:1012440001F01F01A34204FA01F101D10C3003E0C3
:10125400022B0CBF1030143003680AB1194301E0AB
:1012640023EA0101016010BD838A9BB20AB11943CC
:1012740001E023EA010181827047C1F30801818002
:1012840070478088C0F308007047038819420CBF78
:1012940000200120704710B5C1F3421401F01F0370
:1012A4000122012C02FA03F201D1838903E0022C0A
:1012B4000CBF038A838A9BB21340028892B243B163
:1012C4000123090A03FA01F111420CBF0020012095
:1012D40010BD184610BD08B500F02AF808B50C4B2F
:1012E4001A680AB90B4A1A601B68033020F003001D
:1012F400094A1844904206D901F084FD0C23036086
:101304004FF0FF3008BD024A1060184608BD00BF08
:10131400A80000204C130020004C0020012303608F
:10132400014B0B60704700BF1400002000F010B8A0
:10133400BFF34F8F044A054BD16801F4E0610B43BE
:10134400D360BFF34F8FFEE700ED00E00400FA0521
:10135400384B82B01A6842F001021A605968364A62
:101364000A405A601A6822F0847222F480321A60A9
:101374001A6822F480221A605A6822F4FE025A6023
:101384004FF41F029A600022009201921A6842F4FC
:1013940080321A601A6802F400320192009A013213
:1013A4000092019A1AB9009AB2F5A06FF2D11A68A4
:1013B40012F4003218BF01220192019A012A05D0C9
:1013C4001E4B4FF000629A6002B070471C4A1168CD
:1013D40041F010011160116821F0030111601168DE
:1013E40041F0020111605A685A605A685A605A689A
:1013F40042F480625A605A6822F47C125A605A6835
:1014040042F4E8125A601A6842F080721A6019684D
:10141400084A8901FBD5516821F0030151605168E4
:1014240041F0020151605A6802F00C02082AFAD114
:10143400C6E700BF001002400000FFF800ED00E026
:101444000020024030B53E4B93B040F66E7201214D
:101454004FF401701A80FFF7F9F96846FFF77CF939
:101464000024102337486946ADF800308DF8034056
:10147400FFF724F94FF4602302948DF80C408DF8A3
:101484000D4005943048012402A904938DF81840B6
:10149400FEF7DAFE04210B4622462B48FEF725FF11
:1014A40029482146FEF7F4FE27482146FEF7F9FEB7
:1014B4002548FEF7FFFE2448FEF701FF0028FAD175
:1014C4002148FEF700FF2048FEF702FF04460028EB
:1014D400F9D101200146FFF7ADF91C48FEF75CFF86
:1014E40020230F934FF4005310934FF480730D9304
:1014F4004FF480630E93164B01250793154B07A9F0
:101504001248089311940C940B9409940A95FEF7CD
:10151400BBFF2A460D480221FEF7DFFF29460B4890
:10152400FEF7D0FF0B2301A88DF804308DF8054099
:101534008DF806408DF80750FEF752FE13B030BD0B
:10154400C4000020000801400024014008000240BB
:101554004C240140C600002008B507484FF4087128
:10156400FEF70BFF30B104484FF40871BDE80840A2
:10157400FEF70EBF08BD00BF0024014008B50220DD
:10158400FEF7C2FF40B30120FEF7CCFF1348012150
:10159400FEF798FF124B134A1088D98980B289B29A
:1015A4008842194607D9104B188880B2012802D9FD
:1015B4001A88023A0EE01288CB8992B29BB29A4200
:1015C4000AD8094B40F66D72198889B2914203D842
:1015D4001A88013292B21A8008BD00BF0800024086
:1015E400DE100020C6000020C400002038B5FEF73D
:1015F400F1FF0A4D0224204635F8021F00F0A4FA38
:10160400042802D0064801F0B1FA0134A4B2112C26
:10161400F1D1BDE83840FEF7E9BF00BFDC1000207F
:101624003A38000813B5FEF7D5FF00F0FFF90DF1C5
:101634000601012000F0D2F9BDF8063045F254212C
:101644008B421E4C20D0012000F07EFA02236380DE
:1016540023804FF47A63A3800423E3800123A381CE
:10166400072363814FF47A720A23228123820023A1
:101674006382A382E3822383E2814FF49062A28394
:101684006383FFF7B3FF16E00023ADF80630BDF81F
:1016940006000E280DD8023080B2214600F09EF9D3
:1016A40010B1074801F062FABDF806300234013384
:1016B400EBE7FEF79BFF02B010BD00BFDE10002079
:1016C4003A38000838B50C463849054601F0C4FBE1
:1016D40010B1374BA2B25A802846364901F0BCFB00
:1016E40010B1334BA2B21A802846334901F0B4FB3F
:1016F40010B12F4BA2B29A802846304901F0ACFBBE
:1017040010B12B4BA2B2DA8028462D4901F0A4FB7C
:1017140008B1274B9C8128462A4901F09DFB08B15A
:10172400234B1C822846284901F096FB08B1204B24
:101734005C822846254901F08FFB08B11C4B9C8232
:101744002846234901F088FB08B1194BDC8228465E
:10175400204901F081FB08B1154B1C8328461E4922
:1017640001F07AFB10B1124BA2B29A8328461B49AE
:1017740001F072FB10B10E4BA2B2DA81284618496F
:1017840001F06AFB10B10A4BA2B21A81284615492E
:1017940001F062FB10B1064BA2B25A8128461249ED
:1017A40001F05AFB08B1024B5C8338BD483800088D
:1017B400DE1000205A380008663800087238000825
:1017C40080380008983800089F380008A6380008B8
:1017D400AD380008B5380008BD380008C83800081E
:1017E400D4380008DE380008F038000810B5454C3D
:1017F4008EB06288444992B201A801F009FB01A8A5
:1018040001F0B4F92288414992B201A801F000FB29
:1018140001A801F0ABF9A2883D4992B201A801F0F8
:10182400F7FA01A801F0A2F9E2883A4992B201A8B4
:1018340001F0EEFA01A801F099F9A289364912B231
:1018440001A801F0E5FA01A801F090F922893349D1
:1018540092B201A801F0DCFA01A801F087F96289CB
:101864002F4992B201A801F0D3FA01A801F07EF940
:10187400228A2C4912B201A801F0CAFA01A801F087
:1018840075F9628A284912B201A801F0C1FA01A8C7
:1018940001F06CF9A28A254912B201A801F0B8FA44
:1018A40001A801F063F9E28A214912B201A801F00A
:1018B400AFFA01A801F05AF9228B1E4912B201A80D
:1018C40001F0A6FA01A801F051F9A28B1A4992B2CB
:1018D40001A801F09DFA01A801F048F9E28917492D
:1018E40092B201A801F094FA01A801F03FF9628BC9
:1018F400134912B201A801F08BFA01A801F036F9DC
:101904000EB010BDDE100020033900081A3900089B
:101914002B3900083C3900084F3900086C3900089D
:101924007B390008923900089E390008AA3900085A
:10193400B6390008C3390008D0390008E039000876
:10194400F139000838B5184B05461C8803F5806347
:101954001B88A4B29BB22BB94EF6EE62A21A18BF32
:10196400012205E0F4B94EF6EE629B1A5A425A413E
:1019740092020E4B02F1006404F5784413449C4235
:101984000ED22268013209D12046FEF77BFE0428DC
:1019940009D1A01C2946FEF775FE38BD0434EEE7D4
:1019A400802038BDAB2038BD00F80008FEFB0008DD
:1019B40008B50848FEF748FE04280AD10548002166
:1019C400FEF760FE042804D1BDE808400248FEF793
:1019D4003BBE08BD00F8000800FC0008104B10B521
:1019E4001C8803F580631B88A4B29BB21CB10BB1A5
:1019F400AB2010BD01240B4BA40223440A4A224409
:101A040093420AD91A8892B2824204D133F8023C32
:101A140000200B8010BD043BF0E7012010BD00BF87
:101A240000F80008FEFB000802F80008F8B5404E74
:101A3400404D34884EF6EE61A4B22B888C429BB2A2
:101A44004FF6FF7210D0944202D0002C6DD13FE0CB
:101A54000BB9304666E08B4267D13046FEF7F4FDA1
:101A6400042864D128462FE033BB334D1C46164668
:101A7400324B35F8020F1B889BB2834208BFA6B2D3
:101A840033B29C4203D10134032CF1D10CE02C4F2E
:101A94003946FFF7A3FF0128F5D028883988FFF7D6
:101AA40051FF0428EFD0F8BD21480021FEF7EAFDDC
:101AB40004283CD11F4835E0934236D12846FEF72E
:101AC400C3FD042833D130460021FEF7DBFDF8BD09
:101AD4005BB3934201D1284624E0174D1646194BB7
:101AE40035F8020F1B889BB2834208BFA6B233B2FB
:101AF4009C4203D10134032CF1D10CE0104F394640
:101B0400FFF76CFF0128F5D028883988FFF71AFF02
:101B14000428EFD0F8BD07480021FEF7B3FD0428E0
:101B240005D10348FEF790FDF8BDFFF741FFF8BD6E
:101B340000F8000800FC00081A00002006F800085D
:101B4400AE00002006FC00082DE9F84307460C46C9
:101B5400FFF7F8FE802841D1214D224B29881A88AD
:101B640089B292B219B1002A37D11E4601E02E463D
:101B74001D4628464EF6EE61FEF784FD04282DD15D
:101B840038462146FFF7DEFE042827D10024DFF87B
:101B9400589034F80900B84203D10234062CF6D127
:101BA40010E0DFF848804146FFF718FF0128F4D021
:101BB40039F80400B8F80010FFF7C4FE0428ECD08C
:101BC400BDE8F8833046FEF73FFD042806D12846D9
:101BD4000021FEF757FDBDE8F883AB20BDE8F8838C
:101BE40000F8000800FC00081C000020AE000020E3
:101BF40010B500230D4A581C91889BB289B28B42C0
:101C040012D2D188948889B2594306225143A4B28E
:101C140091FBF4F191FBF2F402FB14120449895C88
:101C2400044AD1540346E5E710BD00BFDE1000208E
:101C3400093A0008D200002038B5254B1C88A4B20C
:101C4400002C44D1234821466022FFF73CF9214867
:101C540021460122FFF71BF91E4821460422FFF703
:101C640024F91C4804214022FFF72DF904210A46D7
:101C74001848FFF71AF9174808215022FFF723F9EB
:101C8400144808210422FFF710F92546114CABB281
:101C9400A386012023870135A38701F09BF8B5F5BE
:101CA4007A7FF3D10A2001F095F84FF080400021AB
:101CB400FFF74CF9084B00251D60084B01201D80DF
:101CC400074B1D8001F086F8A5862587A58738BDBA
:101CD400D8100020002C0140CC000020D0000020AF
:101CE400C800002030B50C2085B00121FEF7AEFD00
:101CF40001200146FEF7B6FD032548236946224824
:101D04008DF80330ADF800508DF80250FEF7D6FC84
:101D14004FF08040FEF73AFE01A8FFF766F8002472
:101D24004FF6FF734FF0804001A9ADF80440ADF8C1
:101D34000640ADF80830ADF80A408DF80C40FEF7C7
:101D4400FBFE224623464FF080402946FFF781F8E8
:101D54004FF080400121FFF751F80C4B5A881C4684
:101D640092B2022A03D1FFF743FFFFF765FF6388AE
:101D74009BB2012B06D1064A00231360054A138047
:101D8400054A138005B030BD00080140DE10002074
:101D9400CC000020D0000020C80000204FF0804379
:101DA4009A8C0D4B92B218881A800C4B121A19682F
:101DB40012B20A440A491A6018688A8892B290FBDF
:101DC400F2F302FB130313F4004F18BF8988054A8A
:101DD40018BF5B1813807047D0000020CC0000208F
:101DE400DE100020C800002070B50C208CB0404CE0
:101DF4000121FEF72BFD4FF4E0736946ADF8003086
:101E04000326482320468DF803308DF80260FEF740
:101E140055FC2046FEF7AEFC364BC0F3821018800A
:101E24002046FEF7A7FC344BC0F382101880012132
:101E34000420FEF717FDA4F582347E230025ADF8B7
:101E4400083020464FF6FF7302A9ADF80C30ADF808
:101E54000A50ADF80E508DF81050FEF76DFE204676
:101E64000121FFF751F820464021FEF7EAFF204602
:101E74000421FFF760F80F23204605A9ADF8186088
:101E8400ADF81C30ADF81450ADF81650ADF81A503A
:101E9400FFF7C6F870230126ADF8203020466423EE
:101EA40008A9ADF82630ADF82260ADF82850FEF749
:101EB400D1FE20460421FFF74BF920465021FFF7BD
:101EC4002FF8324620460621FEF7B2FF204631465F
:101ED400FEF794FF1E2301A88DF804308DF80550F9
:101EE4008DF806608DF80760FEF77AF90CB070BDC6
:101EF400000C0140D4100020D610002008B513486F
:101F04000221FFF729F928B110480221BDE8084051
:101F1400FFF72DB90D480421FFF71EF9A0B10B48B6
:101F24000421FFF724F90A48FEF724FC094BC0F307
:101F340082101A8892B2904206D018801888BDE8A0
:101F44000840C0B200F0C6BC08BD00BF0008004095
:101F5400000C0140D610002037B5174C0121102089
:101F6400FEF774FC01A8FEF7F7FB10254FF40053AD
:101F740001A92046ADF804308DF80750FEF79EFB0A
:101F840001A8FEF7E9FB4FF4804301A92046ADF810
:101F940004308DF80750FEF791FB01A8FEF7DCFB37
:101FA4004FF40043204601A9ADF804308DF80750E2
:101FB400FEF784FB03B030BD0010014030B585B09E
:101FC4006846FEF7C9FB2824694640252B48ADF82E
:101FD40000508DF80340FEF771FB6846FEF7BCFB2A
:101FE400802369462548ADF800308DF80340FEF79C
:101FF40065FB6846FEF7B0FB202320486946ADF830
:1020040000308DF80340FEF759FB00200621FEF74F
:10201400B8FB00200521FEF7B4FB00238DF80C303B
:10202400174B02955B89C3F34E030BB9082300E0F9
:102034000C23012402A88DF80D308DF80E40FEF714
:102044007BFA202302930025102302A88DF80D307B
:102054008DF80C508DF80E40FEF76EFA17238DF8AC
:10206400043001A802238DF805508DF806308DF850
:102074000740FEF7B5F805B030BD00BF00080140C9
:10208400DE10002010B52020FEF790FA68B3284B2C
:1020940028485B8920219BB213B9FEF765FB05E054
:1020A400FEF762FB00F0010080F00100224B1B8868
:1020B4009BB278B1B3B9214B1A68214B1A6000F076
:1020C40081FC20484FF40051FEF757FB1D484FF4A4
:1020D400804105E00BB100F0C5FA1A484FF40051F5
:1020E400FEF74DFB2020FEF76FFA4020FEF75EFA64
:1020F400E8B10F4C0F4863898021C3F38D0313B9F2
:10210400FEF732FB05E0FEF72FFB00F0010080F044
:1021140001000B4BA1891A6809B208B10A4400E016
:10212400521A4020BDE810401A60FEF74DBA10BDA7
:10213400DE10002000080140D8100020CC00002050
:10214400FC1000200010014070B58CB001A8FEF70F
:1021540003FB2824402301A94848ADF804308DF836
:102164000740FEF7ABFA01A8FEF7F6FA802301A9AF
:102174004248ADF804308DF80740FEF79FFA01A8F5
:10218400FEF7EAFA202501A93C48ADF804508DF881
:102194000740FEF793FA102301240DEB0300049586
:1021A40000258DF8153002268DF814508DF8164050
:1021B400FEF7C2F9172302A88DF808308DF80A60DB
:1021C4008DF809508DF80B40FEF70AF82146304689
:1021D400FEF748FB06A8FEF708FE4FF6FF7306A9B4
:1021E4002748ADF81C30ADF81840ADF81A50ADF8DA
:1021F4001E508DF82050FEF79FFC224B09A95B89E5
:102204001F48C3F34E03AB4208BF1E460523ADF877
:102214002C30ADF82660ADF82450ADF82A50ADF856
:102224002840FEF7ADFE294622461548FEF72FFE4C
:10223400224613480421FEF72AFE11485021FEF7D6
:1022440000FE0F480421FEF776FE22460C480321C7
:10225400FEF7EEFD21460A48FEF7D0FD1D238DF85A
:102264000C3003A803238DF80D408DF80E308DF843
:102274000F40FDF7B5FF0CB070BD00BF0008014072
:1022840000040040DE10002070B527480121FEF74D
:1022940063FFA8B1254B1C88A4B2012C06D100F021
:1022A40035F921482146FEF762FF09E01E48012165
:1022B400FEF75DFF1E4B1A88013292B21A801B880A
:1022C400194D02212846FEF747FF58B3174B2E8FAE
:1022D400AC8E5B89B6B2C3F38D03A4B2154D164818
:1022E400802113B9FEF740FA05E0FEF73DFA00F04D
:1022F400010080F0010028704CB1B44206D94FF4BB
:102304007A635E43B6FBF4F4A4B200E000240B4B02
:1023140000221C80064B04480221BDE870401A804C
:10232400FEF725BF70BD00BF00040040DE10002092
:10233400DA100020DC1000200008014018110020F1
:10234400474A002310B51380464A474C1380474B35
:1023540001221A70FEF73EF9FFF764F9A08B80B2F0
:1023640000F042FBFFF742FA4FF47A7000F00CFDE4
:1023740000F0ACF9FFF766F863889BB2012B01D13A
:10238400FFF732FD23889BB2012B02D1FFF716FE23
:1023940006E0354B1B889BB2022B01D1FFF7D4FE1C
:1023A40023889BB2012B04D02F4B5B889BB2022B5A
:1023B40001D1FFF797FC23889BB2012B01D100F0D8
:1023C40063F8FFF7C9FD2A484FF40041FEF7D5F939
:1023D400638928489BB2202113B9FEF7C5F905E0AB
:1023E400FEF7C2F900F0010080F0010030B100F006
:1023F400E9FA1F484FF40051FEF7BFF963881E4CF9
:102404009BB2022B04D0184B1B889BB2012B20D10A
:10241400FFF7C4FC00F0A0FA184B194A1B88D05CE3
:10242400184B1A88824202D0188000F053FA23789D
:10243400002BEDD02020FEF759F80128E8D100F058
:102444009FFBE5E72020FEF751F8012801D100F0B9
:1024540097FB00F081FA2378002BFAD0F2E700BF53
:10246400D8100020DA100020DE100020DC1000203C
:10247400001001400008014048130020C80000205B
:10248400D2000020D21000201FB51B4B00241A6874
:102494001A4B02201A601A4B01211C60194B1C6054
:1024A400FEF7E0F9ADF80640ADF80A408DF80C40AF
:1024B400154C4823ADF804302046FA2301A9ADF8A1
:1024C4000830FEF739FB01210A462046FEF7B0FC2E
:1024D40020460121FEF792FC1D238DF800300223D3
:1024E4008DF80130684601238DF802308DF80330F1
:1024F400FDF776FE04B010BDCC000020FC100020D7
:10250400141100200C11002000040040F8B53A4BCF
:102514001B889BB213B9394A1360F8BD384B39494B
:102524001868394B0C681B68384A394D1C1BC01A93
:1025340016680B602860146000F05CFC354FA61B25
:102544003B68984203DD286800F054FC3860286832
:1025540000F050FC304B1A8992B2904208D900F036
:1025640081F8BDE8F8402D484FF48041FEF705B9E5
:102574002249274A1F8A0D68588A126800B200FB54
:10258400025008600D6826483FB28542C8BF086003
:102594000D68244857438542BCBF184D286009681C
:1025A400988A0F44204900B20D680A60551B00FB4D
:1025B4000575D88A40F66E7200B200FB0454188B7D
:1025C400642300B200FB064090FBF3F09042174BEB
:1025D40007DC174A9042B8BF104605DB002801DC2F
:1025E40002E01046002200E001221A7000F002FC12
:1025F400104B80B21880F8BDD810002014110020B0
:10260400CC00002010110020FC100020001100203C
:102614000811002004110020DE10002000100140E9
:10262400801A060080E5F9FF0C110020DC10002060
:1026340092F0FFFF1811002008B508481021FEF79A
:102644008BFD48B106480121FDF746FEBDE8084070
:1026540002481021FEF78BBD08BD00BF002C0140CD
:102664000024014038B5164D164B00241C80284622
:10267400AC8621462C872246AC87FEF708FC284608
:1026840022460421FEF703FC284622460821FEF7D1
:10269400FEFB284621462246FEF707FC2846224632
:1026A4000421FEF702FC284622460821FEF7FDFB22
:1026B400224605480621BDE83840FEF7B9BB00BFF5
:1026C400002C0140D810002000080040F0B50C2078
:1026D4008FB00121FEF7BAF803274FF460431824A2
:1026E40001A94448444DADF804308DF807408DF8F5
:1026F4000670FDF7E3FF4FF4E06301A93F48ADF82E
:1027040004308DF807408DF80670FDF7D7FF4FF4BD
:10271400006001210024FEF799F84FF47A632846FB
:1027240003A9ADF81030ADF80C40ADF80E40ADF88B
:1027340012408DF81440FEF7FFF90423ADF82C3055
:102744004FF480730126ADF8343028464FF40073FB
:102754000AA9ADF83630ADF82840ADF82A60ADF8D6
:102764002E40ADF83040ADF83240FEF72FFA28463F
:102774000AA9FEF76FFA28460AA9FEF7AFFA284617
:102784000AA9FEF7EDFA4FF40063ADF818304FF4E0
:102794008063ADF81A300723ADF81E3028464FF495
:1027A400804306A9ADF82430ADF81C40ADF82040B4
:1027B400ADF82240FEF708FB324628461021FEF70A
:1027C40037FB1B2302A88DF808308DF809408DF8DB
:1027D4000A708DF80B60FDF703FD28463146FEF7BD
:1027E4000DFB28463146FEF715FBFFF73BFF0FB004
:1027F400F0BD00BF000C0140002C01400008014066
:102804002DE9F84381460F4615469DF820809DF832
:1028140024601C462E485BB100216022FEF753FB66
:102824002B4800210122FEF732FB294800210DE04C
:1028340019461A46FEF72BFB2548B9F1000F07D0BD
:1028440021465022FEF73FFB21482146042201E0A5
:1028540049464A46FEF729FB1D480421B8F1000FFA
:1028640008D06022FEF72FFB194804210122FEF74D
:102874000EFB08E04246FEF70AFB1548042137B177
:102884005022FEF720FB042111480A4600E03A4694
:10289400FEF70BFB0E48082146B16022FEF713FB3E
:1028A4000B4808210122FEF7F2FA08E03246FEF74F
:1028B400EEFA0748082135B15022FEF704FB04481C
:1028C4000821042200E02A46BDE8F843FEF7EDBAE9
:1028D400002C014037B50A4B06221B780BB1094B7B
:1028E40000E0094B50431A18957814791B5CD17891
:1028F4005078009552790194FFF782FF03B030BD00
:10290400DC1000203F3A00080F3A000808B50C4BD1
:102914005B889BB2012B09D10A48FDF72BFF0A4BB8
:10292400C0F3821018801888C0B205E0074B084A2B
:102934001B88D05C074B1880BDE80840FFF7CABF6E
:10294400DE100020000C0140D6100020C80000203A
:10295400D2000020D210002038B5144B1B889BB243
:1029640013B3134A134B11781878154688421C4642
:1029740001D0FFF7CBFF2B7840F66E7223700E4B1D
:102984001B889BB2934228BF13460C4A118889B214
:102994008B4288BF13880A4A88BF9BB293861387E9
:1029A40093875B08A2F8403038BD00BFD8100020E0
:1029B400DC100020B000002018110020C40000200A
:1029C400002C014010B5064B01241C80FFF79EFF2C
:1029D400224604480621BDE81040FEF729BA00BF8C
:1029E400D8100020000800402DE9F0413F4B00249E
:1029F4001C703F4B86B0064601214FF480201C70AA
:102A0400FDF730FF08200121FDF720FF01200146DA
:102A1400FDF71CFF374D4FF48063ADF800300323FE
:102A24008DF802302846182369468DF80330FDF7E7
:102A340045FE4FF400636946ADF800302846042390
:102A44008DF80330FDF73AFE272301258DF8043075
:102A540001A805238DF806308DF805508DF8075030
:102A6400FDF7BEFB64235E430296234E0C233046DF
:102A740002A9ADF81230ADF80C40ADF80E40ADF837
:102A84001040ADF81440FEF777FB2A46304640F27A
:102A94002551FEF7D1FBDFF8708030462946FEF75A
:102AA400BFFB29462846FDF7C5FE4046FDF774FCEA
:102AB4001249134A80270A60124A40464A6010228B
:102AC4008A60FF22CA604FF440520C614F618C61EE
:102AD400CC610C624A628C62FDF7D6FC3046394602
:102AE4002A46FEF7C1FB06B0BDE8F0811A130020A8
:102AF40048130020000C0140004800401C13002033
:102B0400044800401B1200201C00024038B50C4C45
:102B140005462046FDF740FC0A490B4B20460B6056
:102B24000A4B80224B600023CD600B618B614A61AC
:102B3400FDF7AAFC20460121BDE83840FDF7C2BCE0
:102B44001C0002401C130020044800401B120020FB
:102B540081B208B50448FEF790FB03488021FEF7D4
:102B640094FB0028F9D008BD0048004010B5441E6D
:102B740014F8010F18B140B2FFF7EAFFF8E710BDEF
:102B8400124B30B51A881249124B13481B680D8832
:102B9400124900688C8E124987B009680090114868
:102BA400ADB20068A4B201900F4892B200680591DA
:102BB4000290039504940D490D4800F029F980B260
:102BC40007B0BDE83040FFF7A1BF00BFD61000201A
:102BD400C6000020CC000020FC100020002C014086
:102BE4001411002000110020081100206F3A000881
:102BF4001B120020F0B5202387B03E483E49ADF8B3
:102C0400143000F029F990B105A93A4800F03EF9D2
:102C140005A9002000F03AF9384900F01DF9384BB5
:102C240020B101221A70FFF7ABFF00E018703148A1
:102C3400344900F011F9A0B105A92E4800F026F995
:102C440005A9002000F022F905A90446002000F09F
:102C54001DF934B128B100F0D1F801B22046FEF7D5
:102C640031FD2448284900F0F7F810B3274D2848CF
:102C7400FFF77CFF05F11004FEF7B8FD6E46D5F8AA
:102C840000C0D5F804E0AA68EB68183520686168CC
:102C9400374603C70834AC423E46F7D12068386053
:102CA400A1886046B9807146FEF7A0FC1948FFF779
:102CB4005DFF1048184900F0CFF808B1FEF796FD03
:102CC400164B1B78022B13D8154B16491A68096842
:102CD400154B164C1B88009121689BB20191144836
:102CE400144900F095F8002380B22360FFF70EFF2B
:102CF40007B0F0BD1C1100208C3A0008933A00087C
:102D040048130020993A00089D3A0008DE1000207C
:102D1400A23A0008AC3A0008B63A00081A13002098
:102D2400CC00002008110020D6100020041100203F
:102D34001B120020BA3A000838B50D4840F225515C
:102D4400FEF7A9FA98B10A48FEF79BFA094CC0B2FB
:102D54002378094A0D28D0544FF0000503D1FFF71A
:102D640049FF257038BD054A01331570237038BDFD
:102D7400004800401A1300201C11002048130020B2
:102D8400FFF7DABFFFF7D8BF10B586B0044601A835
:102D9400FDF70CFD029BB3FBF4F00138B0F1807F2A
:102DA40009D2064B064AF021586082F8231000220B
:102DB4009A6007221A6006B010BD00BF10E000E060
:102DC40000ED00E0024B1A6801321A60704700BF40
:102DD400B4000020064A13681844834206D21168DE
:102DE400994203D3024909688142F7E7704700BF5B
:102DF400B40000200028B8BF4042704700210A22D6
:102E040000F024B9014B1868704700BFA0000020EF
:102E14000EB400B54FF402719CB0ADF814106FF00D
:102E24000041049107914FF6FF711DABADF81610E8
:102E3400084953F8042B02900690086802A90193EC
:102E440000F06EF9029B00221A701CB05DF804EBCE
:102E540003B07047A000002030B503780BB10446DE
:102E640004E00B78002B18BF002030BD22461078F8
:102E7400013438B10023C85C28B1D55C8542F5D152
:102E84000133F8E730BD104630BD0000174B2DE983
:102E9400F0411D680646AC6D0F46FCB9502000F0A9
:102EA400B1FBA8658460AB6D046044601C61DC60A8
:102EB400AB6D9C615C61AB6DDC629C62AB6D5C6311
:102EC4001C63AB6DDC639C63AB6D5C641C64AB6DB9
:102ED400DC649C64AB6D1C77AB6D5C623046394638
:102EE400AA6D0123BDE8F04100F002B8A000002063
:102EF400F0B508B9106828B3044614F8015B0F460E
:102F040017F8016B3EB1B542FAD10BB12046F3E795
:102F140014600370F0BD4DB915602846F0BD17F874
:102F2400016BAE4207D0002EF9D11C46234613F89C
:102F3400015B0F46F3E715B10021217000E02B4639
:102F44001360F0BDF0BD000084463F482DE9F04F0A
:102F5400D0F800800E46344614F8015B08EB0500F7
:102F6400407800F0080000F0FF0708B12646F2E7B9
:102F74002D2D03D1B41C7578012703E02B2D04BF3C
:102F84007578B41C33F010000DD1302D08D12078A1
:102F940000F0DF00582851D165781023023402E094
:102FA400002B08BF0A23002F0CBF6FF0004A4FF01C
:102FB400004ABAFBF3F903FB19AA0026304608EBD2
:102FC400050B9BF801B01BF0040F01D0303D0BE062
:102FD4001BF0030B1BD0BBF1010F14BF4FF0570BB9
:102FE4004FF0370BCBEB05059D4210DAB6F1FF3FEE
:102FF4000AD0484506D801D1554503DC03FB0050EF
:10300400012601E04FF0FF3614F8015BD7E7731C8B
:103014000CD1002F4FF022030CBF6FF000404FF093
:103024000040CCF800302AB9BDE8F08F07B1404227
:1030340042B106B1611E1160BDE8F08F002B08BFDC
:103044000823B0E7BDE8F08FA400002030B5134694
:10305400044A05460C46106829462246BDE830401D
:10306400FFF772BFA00000202DE9F0478D6881466C
:10307400AB420C4692461F4643D38B8913F4906FA0
:103084003DD0266809690222C1EB0608666906EB91
:10309400460696FBF2F608F101023A44964238BF1E
:1030A40016465B050FD5314600F02AFB054698B15C
:1030B4002169424600F0BCFAA38923F4906343F0EB
:1030C4008003A38113E0324600F06EFB054670B91D
:1030D4004846216900F0D0FA0C23C9F80030A389CE
:1030E4004FF0FF3043F04003A381BDE8F087256132
:1030F40066614544C8EB06062560A6603D46AF42BE
:1031040000D23D462A462068514600F09AFAA36848
:1031140000205B1BA36023681D442560BDE8F08785
:103124002DE9F0439DB003938B8907461C060D4699
:1031340016460CD50B6953B9402100F0E1FA28601A
:10314400286110B90C233B60C7E040236B61002366
:10315400099320238DF8293030238DF82A30334603
:103164001C4613F8012B1AB9B4EB06090FD002E080
:10317400252AF5D1F8E73846294632464B46FFF76B
:1031840073FF013000F0A480099B4B44099323781A
:10319400002B00F09D8000234FF0FF32049307932F
:1031A400059206938DF853301A9304F101094D4E9C
:1031B4004C4630462178052200F02CFA09F1010929
:1031C400049B28B1861B0120B04003430493EEE71F
:1031D400D90644BF20228DF853201A0744BF2B225E
:1031E4008DF8532022782A2A02D0079B21460EE02C
:1031F400039A111D12680391002A01DB079204E06F
:10320400524243F002030792049301340AE00C464D
:1032140022780131303A092A03D80A2000FB03231B
:10322400F5E7079323782E2B19D163782A2B09D13C
:10323400039B02341A1D1B680392002BB8BF4FF086
:10324400FF330BE0611C00230C4622780131303A35
:10325400092A03D80A2000FB0323F5E70593224E2D
:1032640021783046032200F0D5F930B1861B402086
:10327400B040049B01340343049321781B48062285
:10328400661C8DF8281000F0C5F988B1184B33B9C5
:10329400039B073323F007030833039314E003ABC2
:1032A4000093384604A92A46124BAFF3008007E086
:1032B40003AB0093384604A92A460E4B00F08EF85F
:1032C400B0F1FF3F804603D0099B4344099346E78E
:1032D400AB895B0601D4099801E04FF0FF301DB0C3
:1032E400BDE8F083EC3A0008F23A0008F63A000828
:1032F400000000006D3000082DE9F84315461F4614
:103304008A680B6906469A42A8BF13462B6091F857
:1033140043200C46DDF820800AB101332B6023687A
:10332400990602D52B6802332B60236813F0060933
:103334001DD094F843302268003318BF012392064D
:103344001FD5E118302081F843005A1C94F8451029
:103354002244023382F8431013E03046394604F124
:1033640019020123C047013007D009F10109E268BD
:103374002B68D31A9945F0DBDBE74FF0FF30BDE84B
:10338400F8833046394604F14302C0470130F4D093
:1033940023682A6803F00603E168042B08BFC2EB24
:1033A40001052369A2680CBF25EAE57500259A4248
:1033B400C4BFC3EB0203ED184FF00009A9450ADAB4
:1033C4003046394604F11A020123C0470130D4D0F3
:1033D40009F10109F2E70020BDE8F8832DE9FF4770
:1033E4000E7E80466E2E0C4691469A460C9D01F147
:1033F400430000F0A58011D8632E22D009D8002EF6
:1034040000F0AF80582E40F0BF8081F845607B4AC1
:103414004FE0642E1ED0692E1CD0B5E0732E00F050
:10342400A48009D86F2E2BD0702E40F0AD800B688D
:1034340043F020030B6038E0752E21D0782E34D071
:10344400A2E02B6801F142071A1D1B682A6081F86B
:1034540042309DE022682B6812F0800F03D01A1DC1
:103464002A601D6805E05106F9D51A1D2A60B3F9D2
:103474000050002D39DA2D236D4284F8433034E0B6
:1034840022682B6812F0800F03D01A1D2A601D6871
:1034940004E05206F9D51A1D2A601D88237E574A76
:1034A4006F2B14BF0A2308231BE07823544A84F8A3
:1034B40045302368296813F0800F01F104062E605B
:1034C40001D00D6802E05F06FBD50D88DE0744BF1E
:1034D40043F0200323601DB9236823F020032360F5
:1034E4001023002184F8431001E0444A0A2366684B
:1034F400002EA66003DB216821F00401216005B9D8
:103504006EB104F14201B5FBF3F603FB1655555DAC
:103514000F4601F801593546002EF4D100E0074664
:10352400082B0AD12368DD0707D5626823699A420C
:1035340003DC302307F8013C013FC01B20612CE071
:1035440009682B6811F0800F626904D0191D296085
:103554001B681A6005E04906F8D5191D29601B6827
:103564001A8000232361074617E02B681A1D2A607E
:103574001F68384600F04EF963682061984288BF9E
:1035840023612369636005E004F1420784F8426023
:1035940001232361002384F84330CDF800A0404682
:1035A400214603AA4B46FFF7A7FE013002D14FF094
:1035B400FF301FE0404649463A462369D047013070
:1035C400F5D023689B0705D4E068039B9842B8BFF5
:1035D40018460FE00025E268039BD31A9D42F3DAF4
:1035E4004046494604F119020123D0470130DED098
:1035F4000135F0E704B0BDE8F08700BFFD3A0008EC
:103604000E3B0008024B0146186800F079B800BF71
:10361400A000002010B5C9B202449042034605D070
:103624001C7801308C42F8D1184610BD002010BD22
:1036340010B50023934203D0CC5CC4540133F9E7A2
:1036440010BD814270B501D300230EE08C18A04256
:10365400FAD28518134613F1FF3305D35142661885
:10366400F65C2944CE54F6E770BD934203D0CC5C9B
:10367400C4540133F9E770BD30B500293CD051F88A
:10368400042C0B1F1D49002AB8BF9B180A680C465E
:1036940012B95A600B6030BD93420DD219685818A4
:1036A400904203D15A581144426819605A60236009
:1036B40030BD994203D80A4651680029F9D11468EB
:1036C40015199D420AD11B682344D01888421360FF
:1036D40012D10868034413604B680CE002D90C2330
:1036E400036030BD18681C188C4203D10C6849680B
:1036F400204418605960536030BD00BFBC000020F6
:1037040070B5CD1C25F0030508350C2D38BF0C25EC
:10371400002D06463FDB8D423DD3214B1C681846E5
:103724002146A1B10B685B1B0ED40B2B03D90B6094
:10373400CC18CD501FE08C4202D1626802601AE0BE
:103744004B6863600C4616E00C464968E9E7154C83
:1037540023681BB9304600F04DF8206029463046F6
:1037640000F048F8431C014615D0C41C24F003049F
:1037740084420AD1256004F10B00231D20F00700C8
:10378400C31A0BD05A42E25070BD3046611A00F0A1
:1037940031F80130EED10C233360002070BD00BF3E
:1037A400BC000020B8000020F8B5064614460D46BB
:1037B40021B91146BDE8F840FFF7A2BF1AB9FFF7D7
:1037C4005BFF2046F8BD00F02DF8A0420ED2304633
:1037D4002146FFF795FF074650B129462246FFF7D9
:1037E40027FF30462946FFF747FF01E02846F8BD8A
:1037F4003846F8BD38B5064C002305460846236014
:10380400FDF76CFD431C02D1236803B12B6038BD66
:10381400C0000020034613F8012B002AFBD1181A1C
:103824000138704751F8040C002802DA04390B58A7
:10383400184404387047466C617368204572726F8F
:10384400720A0D00636F6D6D75746174696F6E4DEE
:103854006574686F6400696E7075744D6574686F23
:103864006400656E636F6465725F50505200656EEC
:10387400636F6465725F706F6C657300656E636F10
:103884006465725F636F756E74735F7065725F7386
:10389400746570007069645F4B70007069645F4B9D
:1038A40069007069645F4B64007069645F46463107
:1038B400007069645F4646320075736172745F62BA
:1038C400617564006D61785F63757272656E740012
:1038D4006D61785F6572726F7200696E766572747D
:1038E4005F64697273746570656E6100636F6D6D9A
:1038F40075746174696F6E5F6F6666736574006377
:103904006F6D6D75746174696F6E4D6574686F6405
:103914003A2025640A00696E7075744D6574686F89
:10392400643A2025640A00656E636F6465725F50B3
:1039340050523A2025640A00656E636F6465725FB5
:10394400706F6C65733A2025640A00656E636F645A
:1039540065725F636F756E74735F7065725F7374A5
:1039640065703A2025640A006D61785F6572726F34
:10397400723A2025640A00696E766572745F646920
:103984007273746570656E613A2025640A0070690B
:10399400645F4B703A2025640A007069645F4B6968
:1039A4003A2025640A007069645F4B643A202564F8
:1039B4000A007069645F4646313A2025640A007043
:1039C40069645F4646323A2025640A007573617261
:1039D400745F626175643A2025640A006D61785FE2
:1039E40063757272656E743A2025640A00636F6DA4
:1039F4006D75746174696F6E5F6F66667365743A32
:103A04002025640A000103020604050000000000EA
:103A1400000000010000010100000100000100009D
:103A2400000001000100000100000101000000008D
:103A34000000010100000000000000000000000080
:103A4400000000000101000001010000000001006D
:103A5400000100010000000001010000010000005D
:103A640000010000010000000000005354523A25F8
:103A7400643B25643B25643B25643B25643B25640A
:103A84003B25643B25640D0053545245414D00537E
:103A94005441525400534554005341564500536118
:103AA40076696E673A0A0D0053415645204F4B0A1A
:103AB4000D0047455400436F756E743A2025642CFD
:103AC4002048616C6C3A2025642C206572726F72F8
:103AD4003A2025642C206D61785F6572726F723AAA
:103AE4002025640A0D004300232D302B2000686C30
:103AF4004C0065666745464700303132333435360D
:103B04003738394142434445460030313233343545
:103B140036373839616263646566000020202020EE
:103B24002020202020282828282820202020202069
:103B34002020202020202020202020208810101049
:103B440010101010101010101010101004040404A1
:103B54000404040404041010101010101041414116
:103B64004141410101010101010101010101010181
:103B74000101010101010110101010101042424214
:103B84004242420202020202020202020202020251
:103B940002020202020202101010102000000000B3
:103BA4000000000000000000000000000000000011
:103BB4000000000000000000000000000000000001
:103BC40000000000000000000000000000000000F1
:103BD40000000000000000000000000000000000E1
:103BE40000000000000000000000000000000000D1
:103BF40000000000000000000000000000000000C1
:103C040000000000000000000000000000000000B0
:0C3C1400000000000000000000000000A4
:103C2000020406080000000001020304010203046C
:103C300006070809AC000020000000000100020097
:103C400003000400050006000700080009000A0040
:103C50000B000C000D000E000F0010001100000002
:103C60000000000000000000000000000000000054
:103C70000000000000000000000000000000000044
:103C8000EA3A000800000000000000000000000008
:103C90000000000000000000000000000000000024
:103CA0000000000000000000000000000000000014
:103CB0000000000000000000000000000000000004
:083CC000400000201F3B00083A
:040000050800010DE1
:00000001FF
