:020000040800F2
:1000000000500020CD010008D1010008D3010008F4
:10001000D5010008D7010008D90100080000000040
:10002000000000000000000000000000DB010008EC
:10003000DD01000800000000DF010008CD2D0008F0
:10004000E3010008E3010008E3010008E301000800
:10005000E3010008E3010008E3010008E3010008F0
:10006000E3010008E3010008E3010008851500082A
:10007000E3010008E3010008E3010008E3010008D0
:10008000E3010008E301000861150008E30100082E
:10009000E3010008E3010008E3010008692100080A
:1000A000E3010008E3010008E30100081527000848
:1000B000E30100086D23000815200008E301000893
:1000C000E3010008E3010008E3010008E301000880
:1000D000E30100088D2D0008E3010008892D0008C8
:1000E000E3010008E3010008E3010008000000004C
:1000F0000000000000000000000000000000000000
:1001000000000000000000005FF808F107B5244A75
:10011000244B9A424FF0000302D242F8043BF7E727
:10012000214A22499818884204D2214959589950A5
:100130000433F5E701F0FEF8684601A901F0F2F892
:100140001C4D1D4B0024ED1AAD101E46AC4204DAC6
:1001500056F8242090470134F8E7184B184D002436
:10016000ED1AAD101E46AC4204DA56F82420904732
:100170000134F8E79DE8030002F054F9114D124CE8
:100180000646641BA41005EB8405002C04DD55F81D
:10019000043D013C9847F8E7304601F0A0F800BF65
:1001A000A80000204C23002000000020A800002010
:1001B000745B0008E4010008E4010008E4010008A1
:1001C000E4010008E4010008E4010008FFF79EBF15
:1001D000FEE7FEE7FEE7FEE7FEE7FEE7FEE7FEE7F7
:0401E000FEE7FEE751
:1001E800C27810B50378FAB1154A4478D26803F199
:1001F8006043D243C2F30222C2F1040104FA01F1BE
:100208000F2424FA02F2847803F5614322400A435A
:100218001201D2B283F8002303780122590903F0AE
:100228001F0302FA03F306E05909012203F01F0332
:1002380002FA03F32031034A42F8213010BD00BF0F
:1002480000ED00E000E100E043680A6823F4702351
:1002580023F4807313430A7910B543EA02234360F9
:100268008A68CB6884681A43084B234013434A7949
:1002780043EA420383600B7CC26A013B22F47002AA
:10028800DBB242EA0353C36210BD00BFFDF7F1FFC2
:10029800836811B143F0010301E023F00103836097
:1002A8007047836811B143F4807301E023F48073CD
:1002B80083607047836843F00803836070478068F1
:1002C800C0F3C0007047836843F00403836070473D
:1002D8008068C0F380007047836811B143F4A003BD
:1002E80001E023F4A00383607047092970B50DD994
:1002F800A1F10A0404EB44040725A540A340C668FD
:1003080026EA050545EA0304C4600BE001EB410455
:100318000725A54003FA04F4066926EA050545EA17
:1003280004030361062A0CD8013A02EB82021F2358
:10033800934001FA02F2446B24EA03031A4342632E
:1003480070BD0C2A0CD8073A02EB82021F23934097
:1003580001FA02F2046B24EA03031A43026370BD34
:100368000D3A02EB82021F23934001FA02F2C46A9B
:1003780024EA03031A43C26270BD4368006810EAA6
:10038800112004D0C9B219420CBF002001207047C7
:100398006FEA11210160704702684FF6FE7313403F
:1003A80003600023036043608360C3602A4B984264
:1003B80022D02A4B984229D0294B984230D0294B39
:1003C800984237D0284B98423ED0284B984206D1C5
:1003D80053F8682C42F4700243F8682C7047244B99
:1003E800984206D153F87C2C42F0706243F87C2C7A
:1003F8007047204B984206D153F8042C42F00F0264
:1004080043F8042C70471C4B984206D153F8182C1B
:1004180042F0F00243F8182C7047184B984206D166
:1004280053F82C2C42F4706243F82C2C7047144B70
:10043800984206D153F8402C42F4704243F8402CBD
:100448007047104B984205D153F8542C42F470224F
:1004580043F8542C704700BF080002401C000240BB
:100468003000024044000240580002406C00024044
:1004780080000240080402401C040240300402408C
:1004880044040240580402408A6810B50C6A0368A4
:1004980014430A6923F4FF4314434A6923F07003A1
:1004A80014438A691443CA6914434A6A14438A6A1A
:1004B800224313430360CB6843600B6883604B6837
:1004C800C36010BD19B1036843F0010303E002687B
:1004D8004FF6FE7313400360704703680AB119436F
:1004E80001E023EA0101016070470000C3004CBF2E
:1004F800034B044B1B6803420CBF002001207047CC
:100508000004024000000240C3004CBF034B044BF0
:100518001B6803420CBF0020012070470004024002
:1005280000000240C3004CBF014B024B58607047AB
:100538000004024000000240837930B50168027966
:1005480043B3194BCC431D6802F1804225401D601E
:100558005D6802F582322C405C60146821431160AA
:1005680002689C68D1430C409C60DC682140D960DB
:100578004179102906D1996811439960D9680A43CD
:10058800DA6030BD01F1804303F5823319680A430C
:100598001A6030BD02F1804303F582331A6822EAFB
:1005A8000101196030BD00BF00040140054B1A6805
:1005B8005B69034004D010420CBF00200120704743
:1005C8001846704700040140014B5861704700BF4E
:1005D80000040140034B044A5A6002F188325A6011
:1005E800704700BF0020024023016745024B1A698B
:1005F80042F080021A61704700200240084BDA6816
:10060800D10709D4DA68520708D4DB6813F0100F51
:100618000CBF042003207047012070470220704758
:100628000020024010B50446FFF7E8FF012806D174
:100638001CB1FFF7E3FF013CF8E7052010BD002CD3
:1006480008BF052010BD000038B505464FF430201E
:10065800FFF7E8FF042812D1094C4FF43020236932
:1006680043F0020323616561236943F0400323617A
:10067800FFF7D8FF226941F6FD731340236138BDA7
:100688000020024070B505464FF400500E46FFF7B3
:10069800C9FF04280ED1084C4FF40050236943F0D9
:1006A800010323612E80FFF7BDFF226941F6FE7327
:1006B8001340236170BD00BF00200240CB78F0B525
:1006C800DA0648BF8A78098803F00F0548BF154342
:1006D80011F0FF0F1DD0046800220127974007EA98
:1006E8000106BE4211D197004FF00F0C0CFA07FC1F
:1006F80005FA07F724EA0C04282B44EA070401D179
:10070800466102E0482B08BF06610132082AE4D19D
:100718000460FF291FD94468002202F10806012756
:10072800B74007EA0106BE4211D197004FF00F0CFF
:100738000CFA07FC05FA07F724EA0C04282B44EA0C
:10074800070401D1466102E0482B08BF0661013267
:10075800082AE2D14460F0BD4FF6FF7303800223FC
:1007680083700423C3707047836819420CBF00204C
:1007780001207047806880B270470161704741610D
:10078800704701F003039B000F229A40984001F044
:10079800FC0101F1804101F5803110B58C6824EA33
:1007A80002028A608A6802438A6010BD1C4B10B539
:1007B8005A6802F00C02042A01D0082A01D0194A0A
:1007C8000EE05A685968C2F38342CC0302F1020270
:1007D80002D55968890301D5134900E011494A43F4
:1007E80002605A681149C2F303128C5C0268E24045
:1007F80042605C68C4F302240C5D22FA04F484604D
:100808005C68C4F3C224095DCA40C2605B680849D9
:10081800C3F38133CB5CB2FBF3F2026110BD00BFBE
:100828000010024000127A0000093D000400002078
:1008380000000020044B5A6909B1104301E022EA84
:1008480000005861704700BF00100240044B9A69CD
:1008580009B1104301E022EA00009861704700BF27
:1008680000100240044BDA6909B1104301E022EAA2
:100878000000D861704700BF00100240044BDA68DE
:1008880009B1104301E022EA0000D860704700BFB8
:1008980000100240044B1A6909B1104301E022EA32
:1008A80000001861704700BF0010024030B5048C8A
:1008B80024F001042404240C0484058B048CADB2B8
:1008C80025F0F3052A4342EA03139DB2104BA4B264
:1008D800984215D003F50063984211D0B0F1804FCB
:1008E8000ED0A3F5983398420AD003F58063984256
:1008F80006D003F58063984218BF24F00A0401D19A
:1009080024F0020444F0010421430583018430BD2E
:10091800002C014030B5048C24F010042404240C6D
:100928000484048B058C24F440742405240D44EAC3
:10093800022242EA0333144AADB290429BB212D06B
:1009480002F5006290420ED0B0F1804F0BD0A2F5B4
:100958009832904207D002F58062904203D002F5A7
:100968008062904207D125F0200545F0100545EA40
:10097800011189B204E025F0A00545F010052943CE
:100988000383018430BD00BF002C014008B55A4BD9
:10099800984207D14FF400600121FFF76FFF4FF431
:1009A8000060A2E0B0F1804F05D101200146FFF7B9
:1009B80071FF012007E0514B984209D10220012123
:1009C800FFF768FF02200021BDE80840FFF762BF7B
:1009D8004B4B984205D104200121FFF75BFF04200F
:1009E800F1E7484B984205D108200121FFF752FF53
:1009F8000820E8E7444B984205D110200121FFF771
:100A080049FF1020DFE7414B984205D12020012102
:100A1800FFF740FF2020D6E73D4B984207D14FF41F
:100A280000500121FFF72AFF4FF400505DE0394BD9
:100A3800984207D14FF400200121FFF71FFF4FF420
:100A4800002052E0344B984207D14FF48010012126
:100A5800FFF714FF4FF4801047E0304B984207D15E
:100A68004FF400100121FFF709FF4FF400103CE09C
:100A78002B4B984205D140200121FFF70BFF402066
:100A8800A1E7284B984205D180200121FFF702FFFA
:100A9800802098E7244B984207D14FF480700121B9
:100AA800FFF7F8FE4FF480708DE7204B984207D18E
:100AB8004FF480300121FFF7E1FE4FF4803014E05D
:100AC8001B4B984207D14FF400300121FFF7D6FEA7
:100AD8004FF4003009E0174B98420BD14FF48020B7
:100AE8000121FFF7CBFE4FF480200021BDE808402C
:100AF800FFF7C4BE08BD00BF002C01400004004041
:100B080000080040000C00400010004000140040A5
:100B180000340140004C01400050014000540140A5
:100B280000180040001C0040002000400040014028
:100B38000044014000480140224A038890429BB289
:100B480012D002F5006290420ED0B0F1804F0BD067
:100B5800A2F59832904207D002F58062904203D005
:100B680002F58062904203D14A8823F07003134350
:100B7800154A904208D002F58062904204D023F4CE
:100B88004073CA889BB2134303808B8883850B8884
:100B980003850C4B98420FD003F5006398420BD0A5
:100BA80003F54063984207D003F58063984203D069
:100BB80003F58063984201D10B7A0386012383826F
:100BC800704700BF002C014000100040038C70B536
:100BD80023F001031B041B0C0384038C8488028B01
:100BE8000D8822F073021204120C2A434E880D89D4
:100BF80023F002031B043543ADB21B0C2B43144DE9
:100C0800A4B2A8420FD005F50065A8420BD005F59F
:100C18004065A84207D005F58065A84203D005F5D0
:100C28008065A8420ED14D8923F008032B438D8897
:100C380023F004032B43CE898D8924F44074354373
:100C4800ADB22C4384800283CA888286038470BD37
:100C5800002C0140038C30B523F010031B041B0C3F
:100C68000384038C8288048B0D8824F4E6442404CE
:100C7800240C23F0200344EA05241B040D891B0CD3
:100C880043EA05134D8892B243EA0513124DA4B204
:100C9800A8429BB203D005F50065A84215D14D893D
:100CA80023F080039BB243EA05134FF6BF751D403E
:100CB8008B8822F4406245EA03138D899BB242EA8D
:100CC8008502CD8942EA850292B28280CA8804836D
:100CD8000287038430BD00BF002C0140038C30B56F
:100CE80023F480731B041B0C0384038C8288848B7D
:100CF8000D8824F073042404240C23F400732C437B
:100D08001B040D891B0C43EA05234D8892B243EA64
:100D18000523124D9BB2A84203D005F50065A842F1
:100D280015D14D8923F400639BB243EA05234FF69E
:100D3800FF351D408B8822F4405245EA03238D89F4
:100D48009BB242EA0512CD8942EA051292B282802C
:100D5800CA8884838287038430BD00BF002C014089
:100D6800038C30B523F480531B041B0C0384038CC1
:100D78008488828B0D8822F4E6421204120C23F434
:100D8800005342EA05221B040D891B0C43EA053374
:100D98004D88A4B243EA05330A4D92B2A8429BB2E9
:100DA80003D005F50065A84205D18D8924F4804457
:100DB80044EA8514A4B284808283CA88A0F84020BB
:100DC800038430BD002C01404A880B8813438A886D
:100DD8001343CA8813430A8913434A8913438A89E8
:100DE80013439BB2A0F8443070474FF6FF738380DB
:100DF80000230380C380438003727047038819B1BE
:100E08009BB243F0010303E023F001031B041B0C16
:100E180003807047B0F8443029B16FEA43436FEA62
:100E280053439BB201E0C3F30E03A0F8443070476C
:100E380083899BB20AB1194301E023EA0101818148
:100E48007047038923F070031B041B0C19430181AD
:100E5800704770B50589048B068C24F44074B6B2CB
:100E680024F0030426F0220625F007052404324363
:100E78002D04240C2D0C44F4807442EA03132943F6
:100E880044F001049EB201810483068470BD0123ED
:100E98008B408A4010B5048CA4B224EA030303846F
:100EA800038C13439BB2038410BD04238B408A40F8
:100EB80010B5048CA4B224EA03030384038C1343FF
:100EC8009BB2038410BD30B501248C40058C00F121
:100ED8001803ADB225EA0404048421F0080030B9EF
:100EE8004908585820F070005850585809E00439FB
:100EF800C1F34E01C858120220F4E040C850C85847
:100F080092B20243CA5030BD838819B19BB243F0F4
:100F1800800303E023F080031B041B0C83807047CD
:100F2800838823F070031B041B0C838083889BB287
:100F3800194381807047038923F007031B041B0CA6
:100F4800038103899BB219430181704781847047EB
:100F5800038B23F00C031B041B0C0383038B9BB232
:100F6800194301837047038B23F440631B041B0C54
:100F78000383038B9BB243EA01218BB2038370473F
:100F8800F8B50C464988A2880029B4F800E014BFD7
:100F980000270227012A054614BF012602262389B5
:100FA800BEF1000F11D1FFF781FC2846E188FFF759
:100FB800CFFF2846394632462389FFF7ABFC28463F
:100FC800E188BDE8F840FFF7CEBFFFF7A3FC28464D
:100FD800E188FFF7C8FF2846394632462389FFF7DC
:100FE80065FC2846E188BDE8F840FFF7B1BF838B70
:100FF80023F00C031B041B0C8383838B9BB21943C4
:1010080081837047838B23F440631B041B0C838309
:10101800838B9BB243EA01218BB283837047000024
:1010280070B50E880D4604464988AA882B893EB9B2
:10103800FFF73CFC2046E988BDE87040FFF788BF11
:10104800042E07D1FFF766FC2046E988BDE870400A
:10105800FFF789BF082EEE88058C39D125F48075F5
:101068002D042D0C0584808B258C80B220F0F30094
:1010780040EA03139BB21A43344BADB29C4212D0E0
:1010880003F500639C420ED0B4F1804F0BD0A3F55A
:1010980098339C4207D003F580639C4203D003F544
:1010A80080639C4207D125F4007545EA012189B285
:1010B80041F4807104E025F4206541F480712943EE
:1010C800A283204621843146BDE87040FFF78FBFD8
:1010D80025F480552D042D0C0584808B258C20F457
:1010E80040700005000D40EA0220184A40EA033328
:1010F8009442ADB29BB212D002F5006294420ED077
:10110800B4F1804F0BD0A2F59832944207D002F583
:101118008062944203D002F58062944207D125F49C
:10112800005242EA013292B242F4805205E047F698
:10113800FF522A4041F480510A43A3832046228467
:101148003146BDE87040FFF75DBF00BF002C01408D
:10115800C94389B201827047038A828911EA030070
:1011680092B203D011420CBF002001207047C9433E
:1011780089B2018270470000038ACA889BB223F4AF
:101188004053134330B503820D4682890989AB88E1
:1011980092B20B43698922F4B0520B4322F00C023D
:1011A80013439BB28381838AAA899BB223F4407339
:1011B80087B013430446838201A8FFF7F7FA17495B
:1011C800049A039B8C4208BF1346A289192112B2C4
:1011D8005943002A2A684FF06403B4BF52009200B2
:1011E800B1FBF2F1B1FBF3F21201100903FB10118C
:1011F800A08900B2002806DAC9003231B1FBF3F346
:1012080003F0070305E009013231B1FBF3F303F002
:101218000F031A4392B2228107B030BD0038014053
:10122800838919B19BB243F4005303E023F40053BC
:101238001B041B0C83817047C1F3421310B50124B2
:1012480001F01F01A34204FA01F101D10C3003E0BF
:10125800022B0CBF1030143003680AB1194301E0A7
:1012680023EA0101016010BD838A9BB20AB11943C8
:1012780001E023EA010181827047C1F308018180FE
:1012880070478088C0F308007047038819420CBF74
:1012980000200120704710B5C1F3421401F01F036C
:1012A8000122012C02FA03F201D1838903E0022C06
:1012B8000CBF038A838A9BB21340028892B243B15F
:1012C8000123090A03FA01F111420CBF0020012091
:1012D80010BD184610BD08B500F02AF808B50C4B2B
:1012E8001A680AB90B4A1A601B68033020F0030019
:1012F800094A1844904206D903F066FB0C230360A0
:101308004FF0FF3008BD024A1060184608BD00BF04
:10131800A80000204C230020004C0020012303607B
:10132800014B0B60704700BF1400002000F010B89C
:10133800BFF34F8F044A054BD16801F4E0610B43BA
:10134800D360BFF34F8FFEE700ED00E00400FA051D
:10135800384B82B01A6842F001021A605968364A5E
:101368000A405A601A6822F0847222F480321A60A5
:101378001A6822F480221A605A6822F4FE025A601F
:101388004FF41F029A600022009201921A6842F4F8
:1013980080321A601A6802F400320192009A01320F
:1013A8000092019A1AB9009AB2F5A06FF2D11A68A0
:1013B80012F4003218BF01220192019A012A05D0C5
:1013C8001E4B4FF000629A6002B070471C4A1168C9
:1013D80041F010011160116821F0030111601168DA
:1013E80041F0020111605A685A605A685A605A6896
:1013F80042F480625A605A6822F47C125A605A6831
:1014080042F4E8125A601A6842F080721A60196849
:10141800084A8901FBD5516821F0030151605168E0
:1014280041F0020151605A6802F00C02082AFAD110
:10143800C6E700BF001002400000FFF800ED00E022
:101448000020024030B53E4B93B040F2B632012145
:101458004FF401701A80FFF7F9F96846FFF77CF935
:101468000024102337486946ADF800308DF8034052
:10147800FFF724F94FF4602302948DF80C408DF89F
:101488000D4005943048012402A904938DF81840B2
:10149800FEF7DAFE04210B4622462B48FEF725FF0D
:1014A80029482146FEF7F4FE27482146FEF7F9FEB3
:1014B8002548FEF7FFFE2448FEF701FF0028FAD171
:1014C8002148FEF700FF2048FEF702FF04460028E7
:1014D800F9D101200146FFF7ADF91C48FEF75CFF82
:1014E80020230F934FF4005310934FF480730D9300
:1014F8004FF480630E93164B01250793154B07A9EC
:101508001248089311940C940B9409940A95FEF7C9
:10151800BBFF2A460D480221FEF7DFFF29460B488C
:10152800FEF7D0FF0B2301A88DF804308DF8054095
:101538008DF806408DF80750FEF752FE13B030BD07
:10154800C0000020000801400024014008000240BB
:101558004C240140C200002008B507484FF4087128
:10156800FEF70BFF30B104484FF40871BDE808409E
:10157800FEF70EBF08BD00BF0024014008B50220D9
:10158800FEF7C2FF40B30120FEF7CCFF134801214C
:10159800FEF798FF124B134A1088D98980B289B296
:1015A8008842194607D9104B188880B2012802D9F9
:1015B8001A88023A0EE01288CB8992B29BB29A42FC
:1015C8000AD8094B40F2B532198889B2914203D83A
:1015D8001A88013292B21A8008BD00BF0800024082
:1015E800DC200020C2000020C000002038B5FEF733
:1015F800F1FF0A4D0224204635F8021F00F0BAFA1E
:10160800042802D0064801F0A9FA0134A4B2122C29
:10161800F1D1BDE83840FEF7E9BF00BFDA2000206D
:101628000254000813B5FEF7D5FF00F015FA0DF1C6
:101638000601012000F0E8F9BDF8063045F2542112
:101648008B421E4C20D0012000F094FA02236380C4
:1016580001224FF416632280A3800723E380A2812E
:1016680063814FF47A720A232281238200236382E2
:10167800A382E38223836383E2814FF49062E2834F
:10168800A383FFF7B3FF16E00023ADF80630BDF8DB
:1016980006000F280DD8023080B2214600F0B4F9B8
:1016A80010B1074801F05AFABDF806300234013388
:1016B800EBE7FEF79BFF02B010BD00BFDC20002067
:1016C8000254000838B50C463C49054603F0A6F913
:1016D80010B13B4BA2B25A8028463A4903F09EF912
:1016E80010B1374BA2B21A802846374903F096F951
:1016F80010B1334BA2B29A802846344903F08EF9D0
:1017080010B12F4BA2B2DA802846314903F086F98E
:1017180008B12B4B9C8128462E4903F07FF908B16C
:10172800274B1C8228462C4903F078F908B1244B32
:101738005C822846294903F071F908B1204B9C8244
:101748002846274903F06AF908B11D4BDC82284670
:10175800244903F063F908B1194B1C832846224930
:1017680003F05CF910B1164BA2B25A8328461F4900
:1017780003F054F910B1124BA2B2DA8328461C497F
:1017880003F04CF910B10E4BA2B2DA812846194980
:1017980003F044F910B10A4BA2B21A81284616493F
:1017A80003F03CF910B1064BA2B25A8128461349FE
:1017B80003F034F908B1024B9C8338BD105400087B
:1017C800DC200020225400082E5400083A54000857
:1017D8004854000860540008675400086E54000814
:1017E800755400087D540008855400089254000878
:1017F8009D540008A9540008B3540008C5540008B3
:1018080010B54A4C8EB06288494992B201A803F0DB
:10181800E1F801A801F0A2F92288464992B201A88C
:1018280003F0D8F801A801F099F9A288424992B2C8
:1018380001A803F0CFF801A801F090F9E2883F4928
:1018480092B201A803F0C6F801A801F087F9A289AD
:101858003B4912B201A803F0BDF801A801F07EF9D6
:101868002289384992B201A803F0B4F801A801F01E
:1018780075F96289344992B201A803F0ABF801A85E
:1018880001F06CF9228A314912B201A803F0A2F8DA
:1018980001A801F063F9628A2D4912B201A803F088
:1018A80099F801A801F05AF9A28A2A4912B201A8A6
:1018B80003F090F801A801F051F9E28A264912B222
:1018C80001A803F087F801A801F048F9228B234901
:1018D80012B201A803F07EF801A801F03FF9628B6B
:1018E8001F4992B201A803F075F801A801F036F972
:1018F800E28B1C4992B201A803F06CF801A801F030
:101908002DF9E289184992B201A803F063F801A8F9
:1019180001F024F9A28B154912B201A803F05AF874
:1019280001A801F01BF90EB010BD00BFDC2000209B
:10193800D8540008EF540008005500081155000855
:1019480024550008415500085055000867550008FF
:10195800735500087F5500088B55000898550008F6
:10196800A5550008B7550008C7550008D855000800
:1019780038B5184B05461C8803F580631B88A4B24C
:101988009BB22BB94EF6EE62A21A18BF012205E0EF
:10199800F4B94EF6EE629B1A5A425A4192020E4B25
:1019A80002F1006404F5784413449C420ED2226884
:1019B800013209D12046FEF765FE042809D1A01C92
:1019C8002946FEF75FFE38BD0434EEE7802038BDB7
:1019D800AB2038BD00F80008FEFB000808B5084831
:1019E800FEF732FE04280AD105480021FEF74AFE18
:1019F800042804D1BDE808400248FEF725BE08BD0A
:101A080000F8000800FC0008104B10B51C8803F50E
:101A180080631B88A4B29BB21CB10BB1AB2010BD74
:101A280001240B4BA40223440A4A224493420AD9B4
:101A38001A8892B2824204D133F8023C00200B800B
:101A480010BD043BF0E7012010BD00BF00F80008FE
:101A5800FEFB000802F80008F8B5404E404D3488F7
:101A68004EF6EE61A4B22B888C429BB24FF6FF7201
:101A780010D0944202D0002C6DD13FE00BB9304613
:101A880066E08B4267D13046FEF7DEFD042864D15C
:101A980028462FE033BB334D1C461646324B35F8EB
:101AA800020F1B889BB2834208BFA6B233B29C4286
:101AB80003D10134032CF1D10CE02C4F3946FFF748
:101AC800A3FF0128F5D028883988FFF751FF04289B
:101AD800EFD0F8BD21480021FEF7D4FD04283CD101
:101AE8001F4835E0934236D12846FEF7ADFD04285D
:101AF80033D130460021FEF7C5FDF8BD5BB39342F4
:101B080001D1284624E0174D1646194B35F8020F27
:101B18001B889BB2834208BFA6B233B29C4203D152
:101B28000134032CF1D10CE0104F3946FFF76CFF5C
:101B38000128F5D028883988FFF71AFF0428EFD044
:101B4800F8BD07480021FEF79DFD042805D103488C
:101B5800FEF77AFDF8BDFFF741FFF8BD00F8000871
:101B680000FC00081A00002006F80008AE0000205B
:101B780006FC00082DE9F84307460C46FFF7F8FE77
:101B8800802841D1214D224B29881A8889B292B2E6
:101B980019B1002A37D11E4601E02E461D462846B7
:101BA8004EF6EE61FEF76EFD04282DD1384621462B
:101BB800FFF7DEFE042827D10024DFF8589034F818
:101BC8000900B84203D10234062CF6D110E0DFF840
:101BD80048804146FFF718FF0128F4D039F804007F
:101BE800B8F80010FFF7C4FE0428ECD0BDE8F8836D
:101BF8003046FEF729FD042806D128460021FEF7C5
:101C080041FDBDE8F883AB20BDE8F88300F8000883
:101C180000FC00081C000020AE00002000000000AE
:101C28001D4B1E4A9988DB8889B29BB2B1FBF3F33E
:101C38002DE9F04113801646002335889CB2AC424A
:101C480003F1010722D2204602F072FC80462846A2
:101C580002F06EFC0146404602F076FD014602F0B5
:101C6800B7FB02F0F9F80AA3D3E9002302F048F918
:101C780002F058FB01F0BEF8094902F0B1FC02F08D
:101C880075FE084B23F814003B46D6E7BDE8F08103
:101C9800182D4454FB210940DC200020CE000020F0
:101CA80000FEFF46D00000202E4B10B51C88A4B2C1
:101CB800002C55D1214622462B48FFF7E8F821464B
:101CC80022462948FFF7F1F8274808216022FFF744
:101CD800FAF8254808210122FFF7D9F822480821F7
:101CE8000422FFF7E2F8204804215022FFF7EBF81E
:101CF80004211D480A46FFF7D8F84FF4FA641B4A36
:101D080013889BB29C42184B09D9118889B29986CD
:101D1800118889B21987128892B29A8702E09C8644
:101D28001C879C8701340120A4B201F053F8B4F554
:101D38007A6FE4D1642001F04DF84FF08040002123
:101D4800FFF704F90A4A002313600A4A01201380A6
:101D5800094A138001F03EF8BDE8104000F076BD56
:101D680010BD00BFD6200020002C0140C00000207C
:101D7800C8000020CC000020C400002030B50C2092
:101D880085B00121FEF762FD01200146FEF76AFDDC
:101D980003254823694622488DF80330ADF80050E2
:101DA8008DF80250FEF78AFC4FF08040FEF7EEFDFA
:101DB80001A8FFF71AF800244FF6FF734FF0804090
:101DC80001A9ADF80440ADF80640ADF80830ADF80B
:101DD8000A408DF80C40FEF7AFFE224623464FF02E
:101DE80080402946FFF735F84FF080400121FFF782
:101DF80005F80C4B5A881C4692B2022A03D1FFF709
:101E08000FFFFFF751FF63889BB2012B06D1064AEB
:101E180000231360054A1380054A138005B030BDBE
:101E280000080140DC200020C8000020CC00002071
:101E3800C40000204FF080439A8C134B92B218884C
:101E48001A80124B121A196812B20A4410491A6001
:101E580018688A8B8B8812B29BB2024492FBF3F00B
:101E680003FB102212F4004F18BF8988094B18BFD2
:101E780052181A801A88084B1B88B2FBF3F103FB2F
:101E8800112306490B807047CC000020C8000020B1
:101E9800DC200020C4000020CE000020D02000203C
:101EA800124B13491A78134B82B11B880A8858437E
:101EB800032190FBF1F0A2EB9302121848BFD2184D
:101EC80092FBF3F003FB102290B270471A880B883C
:101ED8005043032103EB920390FBF1F0184490FB6D
:101EE800F2F302FB130080B2704700BFDA20002033
:101EF800D0200020CE00002070B50C208CB0404CC3
:101F08000121FEF7A3FC4FF4E0736946ADF80030F9
:101F18000326482320468DF803308DF80260FEF72B
:101F2800CDFB2046FEF726FC364BC0F38210188006
:101F38002046FEF71FFC344BC0F3821018800121A5
:101F48000420FEF78FFCA4F582347E230025ADF82B
:101F5800083020464FF6FF7302A9ADF80C30ADF8F3
:101F68000A50ADF80E508DF81050FEF7E5FD2046EA
:101F78000121FEF7C9FF20464021FEF762FF2046F7
:101F88000421FEF7D8FF0F23204605A9ADF81860F5
:101F9800ADF81C30ADF81450ADF81650ADF81A5025
:101FA800FFF73EF870230126ADF820302046642361
:101FB80008A9ADF82630ADF82260ADF82850FEF734
:101FC80049FE20460421FFF7C3F820465021FEF7BA
:101FD800A7FF324620460621FEF72AFF2046314653
:101FE800FEF70CFF1E2301A88DF804308DF805506C
:101FF8008DF806608DF80760FEF7F2F80CB070BD3A
:10200800000C0140D2200020D420002008B5084848
:102018000221FFF7A1F828B105480221BDE80840D0
:10202800FFF7A5B802480421BDE80840FFF794B8B7
:102038000008004037B5174C01211020FEF706FCB8
:1020480001A8FEF789FB10254FF4005301A920468B
:10205800ADF804308DF80750FEF730FB01A8FEF705
:102068007BFB4FF4804301A92046ADF804308DF87E
:102078000750FEF723FB01A8FEF76EFB4FF4004361
:10208800204601A9ADF804308DF80750FEF716FB7D
:1020980003B030BD0010014030B585B06846FEF78A
:1020A8005BFB2824694640252B48ADF800508DF885
:1020B8000340FEF703FB6846FEF74EFB80236946A4
:1020C8002548ADF800308DF80340FEF7F7FA68466A
:1020D800FEF742FB202320486946ADF800308DF812
:1020E8000340FEF7EBFA00200621FEF74AFB00202A
:1020F8000521FEF746FB00238DF80C30174B02959F
:102108005B89C3F34E030BB9082300E00C230124B9
:1021180002A88DF80D308DF80E40FEF70DFA202339
:1021280002930025102302A88DF80D308DF80C506D
:102138008DF80E40FEF700FA17238DF8043001A839
:1021480002238DF805508DF806308DF80740FEF70C
:1021580047F805B030BD00BF00080140DC20002072
:1021680010B52020FEF722FA68B3284B28485B896F
:1021780020219BB213B9FEF7F7FA05E0FEF7F4FA4F
:1021880000F0010080F00100224B1B889BB278B15F
:10219800B3B9214B1A68214B1A6000F01FFB204885
:1021A8004FF40051FEF7E9FA1D484FF4804105E06D
:1021B8000BB100F04BFB1A484FF40051FEF7DFFA61
:1021C8002020FEF701FA4020FEF7F0F9E8B10F4CA5
:1021D8000F4863898021C3F38D0313B9FEF7C4FA4E
:1021E80005E0FEF7C1FA00F0010080F001000B4B9A
:1021F800A1891A6809B208B10A4400E0521A4020BD
:10220800BDE810401A60FEF7DFB910BDDC200020E1
:1022180000080140D6200020C8000020FC20002033
:102228000010014070B58CB001A8FEF795FA28247B
:10223800402301A94848ADF804308DF80740FEF75F
:102248003DFA01A8FEF788FA802301A94248ADF8B3
:1022580004308DF80740FEF731FA01A8FEF77CFA42
:10226800202501A93C48ADF804508DF80740FEF739
:1022780025FA102301240DEB0300049500258DF8A1
:10228800153002268DF814508DF81640FEF754F9D3
:10229800172302A88DF808308DF80A608DF80950C8
:1022A8008DF80B40FDF79CFF21463046FEF7DAFA21
:1022B80006A8FEF79AFD4FF6FF7306A92748ADF862
:1022C8001C30ADF81840ADF81A50ADF81E508DF816
:1022D8002050FEF731FC224B09A95B891F48C3F344
:1022E8004E03AB4208BF1E460523ADF82C30ADF8AF
:1022F8002660ADF82450ADF82A50ADF82840FEF716
:102308003FFE294622461548FEF7C1FD22461348DE
:102318000421FEF7BCFD11485021FEF792FD0F483D
:102328000421FEF708FE22460C480321FEF780FD33
:1023380021460A48FEF762FD1D238DF80C3003A8DC
:1023480003238DF80D408DF80E308DF80F40FDF702
:1023580047FF0CB070BD00BF0008014000040040FA
:10236800DC20002070B527480121FEF7F5FEA8B152
:10237800254B1C88A4B2012C06D100F025F9214870
:102388002146FEF7F4FE09E01E480121FEF7EFFEA4
:102398001E4B1A88013292B21A801B88194D0221ED
:1023A8002846FEF7D9FE58B3174B2E8FAC8E5B89A3
:1023B800B6B2C3F38D03A4B2154D1648802113B9E4
:1023C800FEF7D2F905E0FEF7CFF900F0010080F042
:1023D800010028704CB1B44206D94FF4FA635E4349
:1023E800B6FBF4F4A4B200E000240B4B00221C80DE
:1023F800064B04480221BDE870401A80FEF7B7BEBC
:1024080070BD00BF00040040DC200020D820002060
:10241800DA2000200008014018210020424A002349
:1024280010B51380414A424C1380424B01221A7066
:10243800FEF7D0F8FFF7F6F802236380E08B80B24E
:1024480000F0CAFAFFF7DCF94FF47A7000F09CFC50
:1024580000F028FAFEF7F6FF63889BB2012B01D142
:10246800FFF74AFD23889BB2012B02D1FFF714FE28
:1024780006E02F4B1B889BB2022B01D1FFF7D2FE3F
:1024880023889BB2012B04D0294B5B889BB2022B7B
:1024980001D1FFF773FC23889BB2012B01D100F017
:1024A80051F8FFF7C7FD24484FF40041FEF765F9DE
:1024B800638922489BB2202113B9FEF755F905E03C
:1024C800FEF752F900F0010080F0010030B100F091
:1024D80085F919484FF40051FEF74FF96388184CF5
:1024E8009BB2022B04D0124B1B889BB2012B15D137
:1024F800FFF7A0FC00F020F92378002BF8D020206B
:10250800FDF7F4FF0128F3D100F032FBF0E72020BB
:10251800FDF7ECFF012801D100F02AFB00F00CF9CF
:102528002378002BFAD0F2E7D6200020D82000200C
:10253800DC200020DA2000200010014000080140C3
:10254800482300201FB51B4B00241A681A4B022091
:102558001A601A4B01211C60194B1C60FEF782F9A6
:10256800ADF80640ADF80A408DF80C40154C4823EC
:10257800ADF804302046282301A9ADF80830FEF74D
:10258800DBFA01210A462046FEF752FC20460121CB
:10259800FEF734FC1D238DF8003002238DF801303E
:1025A800684601238DF802308DF80330FDF718FED8
:1025B80004B010BDC8000020FC2000201421002019
:1025C8000C21002000040040F8B5414B1B889BB249
:1025D80013B9404A1360F8BD3F4B40491868404B57
:1025E8000C681B683F4A404D1C1BC01A16680B60DC
:1025F8001460286002F0E0F93C4BA61B5A8B92B29B
:1026080090422A4601D2002107E029685D8B002903
:10261800ADB2CCBFC5EB01014919116034490D6851
:10262800A84288BF08601989304D89B2884208D904
:1026380000F00CF9BDE8F8402E484FF48041FEF751
:102648009CB824492F8A08686D8A12682DB205FB48
:10265800020008600D6828483FB28542C8BF08607C
:102668000D68264857438542BCBF1A4D2860096843
:10267800988A0F44224900B20D680A60551B00FB76
:102688000575D88A40F2B63200B200FB0454188BA4
:10269800642300B200FB064090FBF3F09042194B14
:1026A80008DCA2F5FA629042B8BF104605DB0028A4
:1026B80001DC02E01046002200E001221A7002F05C
:1026C8007BF9114B80B21880BDE8F84000F034B8AF
:1026D800D620002014210020C8000020102100204E
:1026E800FC2000200021002008210020DC20002000
:1026F8000421002000100140801A060080E5F9FF3F
:102708000C210020DA2000201821002008B50848F4
:102718001021FEF721FD48B106480121FDF7DCFD37
:10272800BDE8084002481021FEF721BD08BD00BFE2
:10273800002C014000240140234B70B51B889BB23C
:10274800002B3FD00020FFF7ABFB06460120FFF728
:10275800A7FB05460220FFF7A3FB1C4B40F2B6324D
:102768001B881B4C9BB2934228BF1346194AB6B22A
:10277800118834F9166089B28B4288BF138847F6EE
:10278800FF7188BF9BB25E4396FBF1F6124A06F5CD
:102798007A76B6B29686ADB234F9155080B25D43FA
:1027A80095FBF1F505F57A75ADB2158734F910008A
:1027B800584390FBF1F101F57A7189B25B08918772
:1027C800A2F8403070BD00BFD6200020182100209C
:1027D800D0000020C0000020002C014038B5194C62
:1027E800194B01252046002160221D80FEF76BFB56
:1027F80020462A460021FEF74AFB204600210422F3
:10280800FEF753FB204604216022FEF75CFB2046BE
:102818002A460421FEF73BFB042120460A46FEF720
:1028280044FB204608216022FEF74DFB20462A463D
:102838000821FEF72CFB204608210422BDE8384079
:10284800FEF733BB002C0140D620002038B5134DCD
:10285800134B00241C802846AC8621462C87224630
:10286800AC87FEF714FB284622460421FEF70FFB2F
:10287800284622460821FEF70AFB2846214622461A
:10288800FEF713FB284622460421FEF70EFB2846D6
:1028980022460821BDE83840FEF707BB002C01405E
:1028A800D6200020F0B50C208FB00121FDF7CEFF17
:1028B80003274FF46043182401A94448444DADF858
:1028C80004308DF807408DF80670FDF7F7FE4FF4D9
:1028D800E06301A93F48ADF804308DF807408DF852
:1028E8000670FDF7EBFE4FF4006001210024FDF7B0
:1028F800ADFF4FF4FA63284603A9ADF81030ADF8E0
:102908000C40ADF80E40ADF812408DF81440FEF7BB
:1029180013F90423ADF82C304FF480730126ADF879
:10292800343028464FF400730AA9ADF83630ADF8B4
:102938002840ADF82A60ADF82E40ADF83040ADF82B
:102948003240FEF743F928460AA9FEF783F92846DC
:102958000AA9FEF7C3F928460AA9FEF701FA4FF4B7
:102968000063ADF818304FF48063ADF81A300723D0
:10297800ADF81E3028464FF4804306A9ADF8243040
:10298800ADF81C40ADF82040ADF82240FEF71CFA27
:10299800324628461021FEF74BFA1B2302A88DF871
:1029A80008308DF809408DF80A708DF80B60FDF736
:1029B80017FC28463146FEF721FA28463146FEF72D
:1029C80029FAFFF743FF0FB0F0BD00BF000C01402C
:1029D800002C0140000801402DE9F0413F4B002444
:1029E8001C703F4B86B0064601214FF480201C70B6
:1029F800FDF738FF08200121FDF728FF01200146D7
:102A0800FDF724FF374D4FF48063ADF80030032302
:102A18008DF802302846182369468DF80330FDF7F3
:102A28004DFE4FF400636946ADF800302846042394
:102A38008DF80330FDF742FE272301258DF8043079
:102A480001A805238DF806308DF805508DF807503C
:102A5800FDF7C6FB64235E430296234E0C233046E3
:102A680002A9ADF81230ADF80C40ADF80E40ADF843
:102A78001040ADF81440FEF77FFB2A46304640F27E
:102A88002551FEF7D9FBDFF8708030462946FEF75E
:102A9800C7FB29462846FDF7CDFE4046FDF77CFCDE
:102AA8001249134A80270A60124A40464A60102297
:102AB8008A60FF22CA604FF440520C614F618C61FA
:102AC800CC610C624A628C62FDF7DEFC3046394606
:102AD8002A46FEF7C9FB06B0BDE8F0811A2300209C
:102AE80048230020000C0140004800401C2300201F
:102AF800044800401B2200201C00024038B50C4C42
:102B080005462046FDF748FC0A490B4B20460B605A
:102B18000A4B80224B600023CD600B618B614A61B8
:102B2800FDF7B2FC20460121BDE83840FDF7CABCDC
:102B38001C0002401C230020044800401B220020E7
:102B480081B208B50448FEF798FB03488021FEF7D8
:102B58009CFB0028F9D008BD0048004010B5441E71
:102B680014F8010F18B140B2FFF7EAFFF8E710BDFB
:102B7800164B30B55B8887B09BB2022B02D1144B41
:102B88001A8802E0134B1A8892B21349134B14485F
:102B98001B680D88134900688C8E1349ADB209680B
:102BA80000901248A4B2006801901148006805918D
:102BB8000290039504940F490F4801F00BFF80B26F
:102BC80007B0BDE83040FFF799BF00BFDC20002008
:102BD800D0200020D4200020C2000020C8000020FF
:102BE800FC200020002C014014210020002100209E
:102BF80008210020F05500081B220020F0B52023F2
:102C080087B03C483C49ADF8143001F007FF90B15B
:102C180005A9384801F01CFF05A9002001F018FF9C
:102C2800364901F0FBFE364B20B101221A70FFF73E
:102C38009FFF00E018702F48324901F0EFFEA0B165
:102C480005A92C4801F004FF05A9002001F000FFA8
:102C580005A90446002001F0FBFE34B128B101F0BB
:102C6800AFFE01B22046FEF72DFD2248264901F0AD
:102C7800D5FEF0B1254C2648FFF770FF04F110058A
:102C8800FEF7BEFD6F46D4F800C0D4F804E0A26891
:102C9800E3682034286869683E4603C60835A542BB
:102CA8003746F7D160467146FEF7A0FC1948FFF792
:102CB80055FF1048184901F0B1FE08B1FEF7A0FD14
:102CC800164B1B78022B13D8154B16491A6809683E
:102CD800154B164C1B88009121689BB20191144832
:102CE800144901F077FE002380B22360FFF706FF46
:102CF80007B0F0BD1C2100200D560008145600082E
:102D0800482300201A5600081E560008DC20002020
:102D1800235600082D560008375600081A230020AD
:102D2800C800002008210020D42000200421002011
:102D38001B2200203B56000838B50D4840F22551AB
:102D4800FEF7A9FA98B10A48FEF79BFA094CC0B2F7
:102D58002378094A0D28D0544FF0000503D1FFF716
:102D68004DFF257038BD054A01331570237038BDF5
:102D7800004800401A2300201C210020482300207E
:102D8800FFF7DABFFFF7D8BF10B586B0044601A831
:102D9800FDF70CFD029BB3FBF4F00138B0F1807F26
:102DA80009D2064B064AF021586082F82310002207
:102DB8009A6007221A6006B010BD00BF10E000E05C
:102DC80000ED00E0024B1A6801321A60704700BF3C
:102DD800B0000020064A13681844834206D21168DE
:102DE800994203D3024909688142F7E7704700BF57
:102DF800B000002000B51D4A20F00043934283B084
:102E0800014618DDB3F1FF4F04DB01F0DFFA03B030
:102E18005DF804FB694600F02BF800F00300012878
:102E280018D002280ED0D0B10098019900F094F97A
:102E380000F10040EBE70021002200F089FD03B01B
:102E48005DF804FB00980199012200F081FD00F172
:102E58000040DCE70098019900F07EF9D7E7009878
:102E68000199012200F074FDD1E700BFD80F493F56
:102E78002DE9F04FAB4A20F00044944289B0064651
:102E88000D4664DDA84A94421CDC0028A74940F39B
:102E9800EC8001F09BFAA64B24F00F049C420646F6
:102EA80064D0A44901F092FA01462860304601F046
:102EB8008DFAA04901F08AFA01236860184609B022
:102EC800BDE8F08F9C4A944262DDB4F1FF4F46DAC8
:102ED800E715863FA4EBC754204601F047FD01F0F3
:102EE8002BFB034601462046059301F06FFA4FF08D
:102EF800874101F075FB804601F038FD01F01CFBAD
:102F0800014604464046069401F060FA4FF08741B6
:102F180001F066FB0021079001F0F6FC002800F0A4
:102F2800C5802046002101F0EFFC002814BF0123D2
:102F3800022382480221019000913A4605A82946B9
:102F480000F0CEF9002EC0F2A780034603E000226D
:102F5800286000234A60184609B0BDE8F08F014692
:102F680001F034FA002368602860F4E7744901F03E
:102F78002DFA7449044601F029FA014628602046D2
:102F880001F024FA6F4901F021FA01236860E2E7B1
:102F980000F054FD6C49074601F022FB4FF07C51CC
:102FA80001F016FA01F0E2FC824601F0C5FA5F4929
:102FB800834601F015FB0146384601F007FA5D49E2
:102FC8008046584601F00CFBBAF11F0F814649466E
:102FD800404618DC5D4B0AF1FF3253F8223024F0EA
:102FE800FF029A420FD001F0F1F907462F603946E7
:102FF800404601F0EBF9494601F0E8F9002E686017
:1030080056DB5346A7E701F0E1F9E315C0F3C752D1
:103018009A1A082A0746E9DD49495846039301F0F8
:10302800DFFA07463946404601F0D0F90446214602
:10303800404601F0CBF9394601F0C8F94149074645
:10304800584601F0CDFA394601F0C0F981464946A3
:10305800204601F0BBF9039BC0F3C7529B1A192BFA
:10306800074641DC2860A046C1E701F0B1F9304BC2
:1030780024F00F049C42064623D02E4901F0A8F9FB
:1030880001462860304601F0A1F92A4901F0A0F96B
:103098004FF0FF3368605EE795E80C0003F10041EC
:1030A80002F1004243422A60696054E7032340E783
:1030B80007F1004700F100402F606860CAF1000383
:1030C80049E71F4901F084F91E49044601F080F9D7
:1030D80001462860204601F079F91A4901F078F98B
:1030E8004FF0FF33686036E71949584601F078FA1F
:1030F80007463946204601F069F980464146204690
:1031080001F064F9394601F061F91249044658465C
:1031180001F066FA214601F059F9814649464046D0
:1031280061E700BFD80F493FE3CB1640800FC93F86
:10313800D00FC93F43443537800F4943EC56000848
:103148000044353708A3852E84F9223F6C560008C1
:1031580000A3852E32318D242DE9F84320F0004656
:10316800B6F1485F05460F4649DA01F0FFFB002833
:1031780000F09D802946284601F032FA4E4904465F
:1031880001F02EFA4D4901F023F9214601F028FA01
:103198004B4901F01BF9214601F022FA494901F097
:1031A80017F9214601F01CFA474901F00FF92146A9
:1031B80001F016FA454901F00BF9214601F010FA21
:1031C800804620464FF07C5101F00AFA41460646F7
:1031D800204601F005FA39460446284601F000FA6F
:1031E8000146204601F0F2F80146304601F0EEF8BB
:1031F80001464FF07E5001F0E9F8BDE8F88301463A
:1032080001F0EEF92C49044601F0EAF92B4901F0E6
:10321800DFF8214601F0E4F9294901F0D7F8214601
:1032280001F0DEF9274901F0D3F8214601F0D8F979
:10323800254901F0CBF8214601F0D2F9234901F0E4
:10324800C7F8214601F0CCF9214B80469E42B8DDF3
:10325800204B9E4227DC06F17F4631464FF07E50D8
:1032680001F0B4F8814620464FF07C5101F0B8F9DE
:10327800314601F0ABF841460646204601F0B0F968
:1032880039460446284601F0ABF90146204601F0CC
:103298009DF80146304601F099F80146484601F08C
:1032A80095F8BDE8F883DFF834900B4EDBE74FF074
:1032B8007E50BDE8F88300BF4ED747ADF6740F3196
:1032C8007CF29334010DD037610BB63AABAA2A3D94
:1032D8009999993E0000483F0000903E0000383F11
:1032E8002DE9F04FDFB00B93013B0293D31E48BF8B
:1032F800131DB84C06466898DB1054F8204023EAA2
:10330800E3730C93DB4302EBC30308940693089C16
:10331800029B0C9A1D190991C3EB02071DD4699CE5
:103328003D4404EB870901354FF0000822AC0AE060
:1033380059F8080001F000F90137AF4244F80800D5
:1033480008F1040809D0002FF2DA01370020AF4253
:1033580044F8080008F10408F5D1089A002AC0F2D8
:10336800DF82089A0B9B02F101089C0022AF4FEA0A
:10337800880827440025029A002AC0F2F28105EB4A
:10338800070B4FF000094FF0000A56F809005BF8E8
:10339800041D01F025F90146504601F019F809F11C
:1033A8000409A1458246F0D14AA840F805A0043591
:1033B8004545E0D1089A0EAB03EB82030D93914685
:1033C8004FEA89030793079A5EAB1344B9F1000FDC
:1033D80053F850AC23DD0DF134084AAF174490443C
:1033E8000DAD4FF06E51504601F0FAF801F0BEFAFB
:1033F80001F0A2F84FF08741834601F0F1F8014649
:10340800504600F0E3FF01F0B1FA594645F8040FC1
:1034180057F8040D00F0DCFF45458246E1D15046DF
:10342800069900F055FB4FF07851054601F0D8F8A1
:1034380000F008FB4FF0824101F0D2F8014628461F
:1034480000F0C4FF054601F091FA824601F074F8D5
:103458000146284600F0BAFF069A8046002A40F343
:10346800678109F1FF310EA850F82130C2F1080038
:1034780043FA00F202FA00F01B1A06989244C0F1CF
:10348800070743FA07F70EA840F82130002F32DD6E
:10349800B9F1000F0AF1010A40F375810EAB079AE2
:1034A80019461144002507E0C2F5807012B143F8AF
:1034B800040C01258B420BD053F8042B002DF3D0BC
:1034C800C2F1FF028B4243F8042C4FF00105F3D1FF
:1034D800069B002B0DDD012B00F03281022B08D159
:1034E80009F1FF330EA951F8232002F03F0241F8F9
:1034F8002320022F70D04046002101F005FA002851
:1035080000F08380089A09F1FF35AA420DDC079A7A
:103518000EAB0D981344002253F8041D834242EA6F
:103528000102F9D1002A40F0E481089B0EA85A1E36
:1035380050F82230002B40F0F18100EB8202012389
:1035480052F8041D01330029FAD04B4499450A93D7
:103558003DDADDF82CA022AACA44DDF8308002EB5F
:103568008A02C844C9EB0309131D03920593699A9B
:10357800079B4FEA89094AAF02EB8808CDF81090FB
:103588001F44002558F8040F00F0D6FF029B039A49
:10359800002B50514FF0000B13DBDDF814A04FF057
:1035A8000009AA4456F809005AF8041D01F018F851
:1035B8000146584600F00CFF09F10409A14583466D
:1035C800F0D1049A0435954247F804BFDAD1DDF802
:1035D8002890F5E6045A000841464FF07E5000F066
:1035E800F5FE8046002D86D006994FF07E5000F0FB
:1035F8006FFA0146404600F0E9FE80464046002149
:1036080001F082F900287FF47DAF069B40465942BD
:10361800CDF808A000F05CFA4FF08741044601F0AD
:1036280091F9002800F07F814FF06E51204600F09C
:10363800D7FF01F09BF900F07FFF4FF08741054667
:1036480000F0CEFF0146204600F0C0FE01F08EF9E2
:103658000EAB43F82900284601F088F9069C09F1C9
:10366800010508340EA9069441F8250006994FF083
:103678007E5000F02DFA002D04464FDB6E1C4FEAF9
:103688008508C6EB867A0DF138094AABC1444FEA82
:103698008A0A98444FF0000B59F80B0000F04CFFD1
:1036A800214600F09DFF4FF06E5148F80B00204670
:1036B80000F096FFABF1040BD3450446ECD1DFF8DC
:1036C8008C92DDF820A00024B34603950497BAF144
:1036D800000FB8BF002515DB00263746002501E09E
:1036E800A7420FDC58F8061059F8060000F078FFDA
:1036F8000146284600F06CFE0137BA45054606F13A
:103708000406EDDA5EA800EB84030134A345A8F1B2
:10371800040843F8A05CDAD1039D049F689C032C3D
:1037280000F29880DFE814F0CB009C009C00310088
:1037380010D109F1FF330EA951F823703F12A5E605
:1037480009F1FF330EA850F8232002F07F0240F859
:103758002320CEE64FF07C5101F0F4F858B9074623
:10376800C9E64FF0000A4AA840F805A004354545C7
:103778007FF401AE1EE6B9F1000F4FF002070AF11F
:10378800010A3FF78BAE0025A2E6002D40F3DC804E
:103798004FEA850B5EAB36AE05F1FF3A5B4406EBAC
:1037A8008A0A53F8A08C54465B4635AABB462F4676
:1037B80000E0C84654F8045941462846019200934F
:1037C80000F006FE81464946284600F0FFFD4146C6
:1037D80000F0FEFD019AC4F804909442A060009B9A
:1037E800E7D13D46012D5F469B4640F3AD805EAB79
:1037F8009B445BF8A04C00E044465AF804992146E3
:10380800484600F0E5FD80464146484600F0DEFDAA
:10381800214600F0DDFD5645CAF80480CAF80800C4
:10382800EAD16C1C06EB84040020083654F8041D09
:1038380000F0CEFDB442F9D1002F7ED0369A379BE6
:10384800099C00F1004002F1004203F10043A0602E
:1038580022606360029A02F007005FB0BDE8F08F53
:10386800002DB8BF00200ADB36AE6C1C002006EB2A
:10387800840454F8041D00F0ABFDB442F9D1002FC4
:1038880035D000F10043099C01462360369800F0CA
:103898009DFD002D08DD36AC04EB850554F8041FAA
:1038A80000F096FDAC42F9D10FB100F10040099A41
:1038B8005060029A02F007005FB0BDE8F08F002D5B
:1038C80039DB6C1C36AE002006EB840454F8041D6A
:1038D80000F07EFDB442F9D10FB100F10040099A21
:1038E8001060029A02F007005FB0BDE8F08F03464F
:1038F800C9E7069A0EAC54F82530083ACDF808A066
:103908000692002B7FF4B2AE04EB850353F8041D36
:10391800013D083A0029F9D00692A7E6012314E6EA
:103928000B9B9C0046E5204601F020F80EAA4D4668
:1039380042F829009AE60020CEE7099C369A379B80
:10394800A0602260636085E7002075E7105A0008D0
:103958002DE9F84320F00043B3F1485F04460F46D1
:10396800904603DA01F002F8002857D02146204695
:1039780000F036FE2146054600F032FE294906468B
:10398800284600F02DFE284900F020FD294600F0C9
:1039980027FE264900F01CFD294600F021FE244997
:1039A80000F014FD294600F01BFE224900F010FD2E
:1039B8008146B8F1000F22D038464FF07C5100F014
:1039C8000FFE49468046304600F00AFE0146404652
:1039D80000F0FCFC294600F003FE394600F0F6FC36
:1039E80015490546304600F0FBFD0146284600F023
:1039F800EFFC0146204600F0E9FCBDE8F8834946A3
:103A0800284600F0EDFD0C4900F0E0FC314600F0DE
:103A1800E7FD214600F0DCFCBDE8F8832046BDE860
:103A2800F88300BFD3C92E2F342FD7321BEF383677
:103A3800010D50398988083CABAA2A3E20F0004085
:103A4800704700BF2DE9F04120F00047FD0D7F3D94
:103A5800162D064613DC002D80461BDB194F2F411F
:103A6800074214D0184900F0B3FC002100F074FF9D
:103A780068B1002E1BDB28EA0700BDE8F081B7F12A
:103A8800FF4F04D3014600F0A3FCBDE8F0813046A7
:103A9800BDE8F0810C4900F09BFC002100F05CFFC0
:103AA8000028F4D0002E08DB0020BDE8F0814FF498
:103AB800000343FA05F5A844DDE7002FE7D00348E3
:103AC800BDE8F081FFFF7F00CAF24971000080BFA6
:103AD80038B530F00044024603460D4614D0B4F120
:103AE800FF4F0DD2B4F5000F0FD3E40D2C44FE2C7C
:103AF8002EDC002C1DDD23F0FF4343EAC45038BD03
:103B0800014600F065FC38BD38BD4FF0984100F023
:103B180067FD194B02469D4207DBC0F3C7540346B5
:103B2800193CE3E7154800F02DF8144900F058FD5A
:103B380038BD14F1160F13DA4CF250339D4211467A
:103B4800F0DD0F4800F01EF80D4900F049FD38BDC2
:103B580011460B4800F016F8094900F041FD38BD40
:103B680004F1190023F0FF4343EAC0504FF04C51D1
:103B780000F036FD38BD00BFB03CFFFF6042A20D2B
:103B8800CAF2497101F0004120F000400843704733
:103B980081F0004102E000BF83F0004330B54FEAF6
:103BA80041044FEA430594EA050F08BF90EA020F63
:103BB8001FBF54EA000C55EA020C7FEA645C7FEAF6
:103BC800655C00F0E2804FEA5454D4EB5555B8BF19
:103BD8006D420CDD2C4480EA020281EA030382EA8A
:103BE800000083EA010180EA020281EA0303362D1C
:103BF80088BF30BD11F0004F4FEA01314FF4801CEF
:103C08004CEA113102D0404261EB410113F0004F00
:103C18004FEA03334CEA133302D0524263EB4303B7
:103C280094EA050F00F0A780A4F10104D5F1200E55
:103C38000DDB02FA0EFC22FA05F2801841F10001B0
:103C480003FA0EF2801843FA05F359410EE0A5F184
:103C580020050EF1200E012A03FA0EFC28BF4CF0B5
:103C6800020C43FA05F3C01851EBE37101F000456B
:103C780007D54FF0000EDCF1000C7EEB00006EEB78
:103C88000101B1F5801F1BD3B1F5001F0CD3490802
:103C98005FEA30004FEA3C0C04F101044FEA445259
:103CA80012F5800F80F09A80BCF1004F08BF5FEAE0
:103CB800500C50F1000041EB045141EA050130BDC0
:103CC8005FEA4C0C404141EB010111F4801FA4F163
:103CD8000104E9D191F0000F04BF01460020B1FAB8
:103CE80081F308BF2033A3F10B03B3F120020CDAF0
:103CF8000C3208DD02F1140CC2F10C0201FA0CF0CE
:103D080021FA02F10CE002F11402D8BFC2F1200C32
:103D180001FA02F120FA0CFCDCBF41EA0C019040E8
:103D2800E41AA2BF01EB0451294330BD6FEA040431
:103D38001F3C1CDA0C340EDC04F11404C4F120021C
:103D480020FA04F001FA02F340EA030021FA04F32E
:103D580045EA030130BDC4F10C04C4F1200220FA85
:103D680002F001FA04F340EA0300294630BD21FAC3
:103D780004F0294630BD94F0000F83F4801306BF89
:103D880081F480110134013D4EE77FEA645C18BF7D
:103D98007FEA655C29D094EA050F08BF90EA020F14
:103DA80005D054EA000C04BF1946104630BD91EA0C
:103DB800030F1EBF0021002030BD5FEA545C05D10F
:103DC8004000494128BF41F0004130BD14F580044E
:103DD8003CBF01F5801130BD01F0004545F0FE41C2
:103DE80041F470014FF0000030BD7FEA645C1ABFF7
:103DF800194610467FEA655C1CBF0B46024650EA2E
:103E0800013406BF52EA033591EA030F41F4002159
:103E180030BD00BF90F0000F04BF0021704730B5DF
:103E28004FF4806404F132044FF000054FF00001B4
:103E380050E700BF90F0000F04BF0021704730B575
:103E48004FF4806404F1320410F0004548BF40424A
:103E58004FF000013EE700BF42004FEAE2014FEA9F
:103E680031014FEA02701FBF12F07F4393F07F4F7A
:103E780081F06051704792F0000F14BF93F07F4FAC
:103E8800704730B54FF4607401F0004521F00041EF
:103E980020E700BF50EA010208BF704730B54FF075
:103EA80000050AE050EA010208BF704730B511F07A
:103EB800004502D5404261EB41014FF4806404F1B2
:103EC80032045FEA915C3FF4DCAE4FF003025FEA34
:103ED800DC0C18BF03325FEADC0C18BF033202EBBC
:103EE800DC02C2F1200300FA03FC20FA02F001FA16
:103EF80003FE40EA0E0021FA02F11444C1E600BFB5
:103F080070B54FF0FF0C4CF4E06C1CEA11541DBF67
:103F18001CEA135594EA0C0F95EA0C0F00F0DEF832
:103F28002C4481EA030621EA4C5123EA4C5350EA17
:103F3800013518BF52EA033541F4801143F4801368
:103F480038D0A0FB02CE4FF00005E1FB02E506F0F9
:103F58000042E0FB03E54FF00006E1FB03569CF04E
:103F6800000F18BF4EF0010EA4F1FF04B6F5007F54
:103F780064F5407404D25FEA4E0E6D4146EB0606C6
:103F880042EAC62141EA55514FEAC52040EA5E504F
:103F98004FEACE2EB4F1FD0C88BFBCF5E06F1ED8F9
:103FA800BEF1004F08BF5FEA500E50F1000041EB30
:103FB800045170BD06F0004646EA010140EA0200DD
:103FC80081EA0301B4EB5C04C2BFD4EB0C0541EAFF
:103FD800045170BD41F480114FF0000E013C00F314
:103FE800AB8014F1360FDEBF002001F0004170BD38
:103FF800C4F10004203C35DA0C341BDC04F1140451
:10400800C4F1200500FA05F320FA04F001FA05F2DC
:1040180040EA020001F0004221F0004110EBD370A9
:1040280021FA04F642EB06015EEA430E08BF20EAD5
:10403800D37070BDC4F10C04C4F1200500FA04F378
:1040480020FA05F001FA04F240EA020001F000410A
:1040580010EBD37041F100015EEA430E08BF20EA7D
:10406800D37070BDC4F1200500FA05F24EEA020EC5
:1040780020FA04F301FA05F243EA020321FA04F0F4
:1040880001F0004121FA04F220EA020000EBD370AB
:104098005EEA430E08BF20EAD37070BD94F0000FAB
:1040A8000FD101F00046400041EB010111F4801FDF
:1040B80008BF013CF7D041EA060195F0000F18BF90
:1040C800704703F00046520043EB030313F4801FCC
:1040D80008BF013DF7D043EA0603704794EA0C0F86
:1040E8000CEA135518BF95EA0C0F0CD050EA41069C
:1040F80018BF52EA4306D1D181EA030101F0004119
:104108004FF0000070BD50EA410606BF1046194640
:1041180052EA430619D094EA0C0F02D150EA01364C
:1041280013D195EA0C0F05D152EA03361CBF10468D
:1041380019460AD181EA030101F0004141F0FE412C
:1041480041F470014FF0000070BD41F0FE4141F4B0
:10415800780170BD70B54FF0FF0C4CF4E06C1CEAB0
:1041680011541DBF1CEA135594EA0C0F95EA0C0F65
:1041780000F0A7F8A4EB050481EA030E52EA033520
:104188004FEA013100F088804FEA03334FF0805541
:1041980045EA131343EA12634FEA022245EA11156E
:1041A80045EA10654FEA00260EF000419D4208BF1F
:1041B800964244F1FD0404F5407402D25B084FEACC
:1041C8003202B61A65EB03055B084FEA32024FF478
:1041D80080104FF4002CB6EB020E75EB030E22BFD5
:1041E800B61A754640EA0C005B084FEA3202B6EB95
:1041F800020E75EB030E22BFB61A754640EA5C0044
:104208005B084FEA3202B6EB020E75EB030E22BFD3
:10421800B61A754640EA9C005B084FEA3202B6EBD4
:10422800020E75EB030E22BFB61A754640EADC0093
:1042380055EA060E18D04FEA051545EA16754FEAF5
:1042480006164FEAC30343EA52734FEAC2025FEA13
:104258001C1CC0D111F4801F0BD141EA00014FF0A2
:1042680000004FF0004CB6E711F4801F04BF014373
:104278000020B4F1FD0C88BFBCF5E06F3FF6AFAE8F
:10428800B5EB030C04BFB6EB020C5FEA500C50F11F
:10429800000041EB045170BD0EF0004E4EEA1131A2
:1042A80014EB5C04C2BFD4EB0C0541EA045170BDA9
:1042B80041F480114FF0000E013C90E645EA060EED
:1042C8008DE60CEA135594EA0C0F08BF95EA0C0F1B
:1042D8003FF43BAF94EA0C0F0AD150EA01347FF463
:1042E80034AF95EA0C0F7FF425AF104619462CE73A
:1042F80095EA0C0F06D152EA03353FF4FDAE10469D
:10430800194622E750EA410618BF52EA43067FF4ED
:10431800C5AE50EA41047FF40DAF52EA43057FF47D
:10432800EBAE12E74FEA4102B2F1E04324BFB3F526
:10433800001CDCF1FE5C0DD901F0004C4FEAC00214
:104348004CEA5070B2F1004F40EB830008BF20F0F8
:104358000100704711F0804F21D113F13872BCBFB2
:1043680001F00040704741F480114FEA5252C2F107
:104378001802C2F1200C10FA0CF320FA02F018BF50
:1043880040F001004FEAC1234FEAD32303FA0CFCA3
:1043980040EA0C0023FA02F34FEA4303CCE77FEA32
:1043A800625307D150EA01331EBF4FF0FE4040F47C
:1043B8004000704701F0004040F0FE4040F400002B
:1043C800704700BF80F0004002E000BF81F000416C
:1043D80042001FBF5FEA410392EA030F7FEA226CA3
:1043E8007FEA236C6AD04FEA1262D2EB1363C1BF33
:1043F800D218414048404140B8BF5B42192B88BFA2
:10440800704710F0004F40F4000020F07F4018BFC4
:10441800404211F0004F41F4000121F07F4118BFE4
:10442800494292EA030F3FD0A2F1010241FA03FC8C
:1044380010EB0C00C3F1200301FA03F100F0004374
:1044480002D5494260EB4000B0F5000F13D3B0F13C
:10445800807F06D340084FEA310102F10102FE2AAB
:1044680051D2B1F1004F40EBC25008BF20F001001B
:1044780040EA03007047490040EB000010F4000FC9
:10448800A2F10102EDD1B0FA80FCACF1080CB2EB5C
:104498000C0200FA0CF0AABF00EBC25052421843BB
:1044A800BCBFD0401843704792F0000F81F4000160
:1044B80006BF80F400000132013BB5E74FEA410333
:1044C8007FEA226C18BF7FEA236C21D092EA030F9F
:1044D80004D092F0000F08BF0846704790EA010F19
:1044E8001CBF0020704712F07F4F04D1400028BF46
:1044F80040F00040704712F100723CBF00F5000028
:10450800704700F0004343F0FE4040F4000070475D
:104518007FEA226216BF08467FEA23630146420209
:1045280006BF5FEA412390EA010F40F4800070471C
:104538004FF0000304E000BF10F0004348BF4042C2
:104548005FEA000C08BF704743F0964301464FF0FE
:1045580000001CE050EA010208BF70474FF000035A
:104568000AE000BF50EA010208BF704711F000439B
:1045780002D5404261EB41015FEA010C02BF84466B
:104588000146002043F0B64308BFA3F18053A3F5CA
:104598000003BCFA8CF2083AA3EBC25310DB01FA11
:1045A80002FC634400FA02FCC2F12002BCF1004F95
:1045B80020FA02F243EB020008BF20F00100704726
:1045C80002F1200201FA02FCC2F1200250EA4C007A
:1045D80021FA02F243EB020008BF20EADC707047C0
:1045E8004FF0FF0C1CEAD0521EBF1CEAD15392EACE
:1045F8000C0F93EA0C0F6FD01A4480EA010C4002AA
:1046080018BF5FEA41211ED04FF0006343EA501003
:1046180043EA5111A0FB01310CF00040B1F5000F45
:104628003EBF490041EAD3715B0040EA010062F1F4
:104638007F02FD2A1DD8B3F1004F40EBC25008BFDE
:1046480020F00100704790F0000F0CF0004C08BFFC
:1046580049024CEA502040EA51207F3AC2BFD2F1C9
:10466800FF0340EAC250704740F400004FF00003D7
:10467800013A5DDC12F1190FDCBF00F00040704711
:10468800C2F10002410021FA02F1C2F1200200FA4F
:1046980002FC5FEA310040F1000053EA4C0308BF16
:1046A80020EADC70704792F0000F00F0004C02BF67
:1046B800400010F4000F013AF9D040EA0C0093F0E2
:1046C800000F01F0004C02BF490011F4000F013B3C
:1046D800F9D041EA0C018FE70CEAD15392EA0C0FAA
:1046E80018BF93EA0C0F0AD030F0004C18BF31F015
:1046F800004CD8D180EA010000F00040704790F0EB
:10470800000F17BF90F0004F084691F0000F91F08E
:10471800004F14D092EA0C0F01D142020FD193EA54
:104728000C0F03D14B0218BF084608D180EA0100DC
:1047380000F0004040F0FE4040F40000704740F0B8
:10474800FE4040F4400070474FF0FF0C1CEAD05286
:104758001EBF1CEAD15392EA0C0F93EA0C0F69D0E2
:10476800A2EB030280EA010C49024FEA402037D04D
:104778004FF0805343EA111143EA10130CF0004044
:104788008B4238BF5B0042F17D024FF4000C8B4234
:1047980024BF5B1A40EA0C00B3EB510F24BFA3EB14
:1047A800510340EA5C00B3EB910F24BFA3EB9103E4
:1047B80040EA9C00B3EBD10F24BFA3EBD10340EA3E
:1047C800DC001B0118BF5FEA1C1CE0D1FD2A3FF684
:1047D80050AF8B4240EBC25008BF20F00100704739
:1047E8000CF0004C4CEA50207F32C2BFD2F1FF03DC
:1047F80040EAC250704740F400004FF00003013A0D
:1048080037E792F0000F00F0004C02BF400010F4B0
:10481800000F013AF9D040EA0C0093F0000F01F0C4
:10482800004C02BF490011F4000F013BF9D041EAE6
:104838000C0195E70CEAD15392EA0C0F08D1420219
:104848007FF47DAF93EA0C0F7FF470AF084676E7EC
:1048580093EA0C0F04D14B023FF44CAF08466EE7C5
:1048680030F0004C18BF31F0004CCAD130F0004293
:104878007FF45CAF31F000437FF43CAF5FE700BFEB
:104888004FF0FF3C06E000BF4FF0010C02E000BF14
:104898004FF0010C4DF804CD4FEA40024FEA4103B6
:1048A8007FEA226C18BF7FEA236C11D001B052EA6C
:1048B800530C18BF90EA010F58BFB2EB030088BF32
:1048C800C81738BF6FEAE17018BF40F001007047A1
:1048D8007FEA226C02D15FEA402C05D17FEA236C83
:1048E800E4D15FEA412CE1D05DF8040B704700BFCA
:1048F800844608466146FFE70FB5FFF7C9FF002861
:1049080048BF10F1000F0FBD4DF808EDFFF7F4FF99
:104918000CBF012000205DF808FB00BF4DF808ED32
:10492800FFF7EAFF34BF012000205DF808FB00BF55
:104938004DF808EDFFF7E0FF94BF012000205DF877
:1049480008FB00BF4DF808EDFFF7D2FF94BF012028
:1049580000205DF808FB00BF4DF808EDFFF7C8FF21
:1049680034BF012000205DF808FB00BF4FEA400279
:10497800B2F1FE4F0FD34FF09E03B3EB12620DD985
:104988004FEA002343F0004310F0004F23FA02F0EF
:1049980018BF404270474FF00000704712F1610F96
:1049A80001D1420205D110F0004008BF6FF000406D
:1049B80070474FF0000070470028B8BF404270476A
:1049C80000210A2200F024B9014B1868704700BF83
:1049D800A00000200EB400B54FF402719CB0ADF8F1
:1049E80014106FF00041049107914FF6FF711DAB51
:1049F800ADF81610084953F8042B02900690086881
:104A080002A9019300F06EF9029B00221A701CB0F3
:104A18005DF804EB03B07047A000002030B50378C0
:104A28000BB1044604E00B78002B18BF002030BD02
:104A380022461078013438B10023C85C28B1D55C0F
:104A48008542F5D10133F8E730BD104630BD00008E
:104A5800174B2DE9F0411D680646AC6D0F46FCB9B1
:104A6800502000F0B1FBA8658460AB6D0460446021
:104A78001C61DC60AB6D9C615C61AB6DDC629C624F
:104A8800AB6D5C631C63AB6DDC639C63AB6D5C649A
:104A98001C64AB6DDC649C64AB6D1C77AB6D5C62B5
:104AA80030463946AA6D0123BDE8F04100F002B84E
:104AB800A0000020F0B508B9106828B3044614F81F
:104AC800015B0F4617F8016B3EB1B542FAD10BB145
:104AD8002046F3E714600370F0BD4DB91560284611
:104AE800F0BD17F8016BAE4207D0002EF9D11C4675
:104AF800234613F8015B0F46F3E715B10021217037
:104B080000E02B461360F0BDF0BD000084463F482E
:104B18002DE9F04FD0F800800E46344614F8015BBA
:104B280008EB0500407800F0080000F0FF0708B126
:104B38002646F2E72D2D03D1B41C7578012703E032
:104B48002B2D04BF7578B41C33F010000DD1302D17
:104B580008D1207800F0DF00582851D1657810235B
:104B6800023402E0002B08BF0A23002F0CBF6FF0AD
:104B7800004A4FF0004ABAFBF3F903FB19AA0026D2
:104B8800304608EB050B9BF801B01BF0040F01D071
:104B9800303D0BE01BF0030B1BD0BBF1010F14BF22
:104BA8004FF0570B4FF0370BCBEB05059D4210DA52
:104BB800B6F1FF3F0AD0484506D801D1554503DC78
:104BC80003FB0050012601E04FF0FF3614F8015BAB
:104BD800D7E7731C0CD1002F4FF022030CBF6FF0E6
:104BE80000404FF00040CCF800302AB9BDE8F08F03
:104BF80007B1404242B106B1611E1160BDE8F08FB5
:104C0800002B08BF0823B0E7BDE8F08FA400002000
:104C180030B51346044A05460C4610682946224614
:104C2800BDE83040FFF772BFA00000202DE9F04733
:104C38008D688146AB420C4692461F4643D38B890A
:104C480013F4906F3DD0266809690222C1EB06086B
:104C5800666906EB460696FBF2F608F101023A444D
:104C6800964238BF16465B050FD5314600F02AFB41
:104C7800054698B12169424600F0BCFAA38923F49D
:104C8800906343F08003A38113E0324600F06EFB8B
:104C9800054670B94846216900F0D0FA0C23C9F8D6
:104CA8000030A3894FF0FF3043F04003A381BDE8F3
:104CB800F087256166614544C8EB06062560A66055
:104CC8003D46AF4200D23D462A462068514600F094
:104CD8009AFAA36800205B1BA36023681D44256023
:104CE800BDE8F0872DE9F0439DB003938B89074613
:104CF8001C060D4616460CD50B6953B9402100F029
:104D0800E1FA2860286110B90C233B60C7E0402312
:104D18006B610023099320238DF8293030238DF807
:104D28002A3033461C4613F8012B1AB9B4EB06098E
:104D38000FD002E0252AF5D1F8E738462946324651
:104D48004B46FFF773FF013000F0A480099B4B44EA
:104D580009932378002B00F09D8000234FF0FF3249
:104D680004930793059206938DF853301A9304F130
:104D780001094D4E4C4630462178052200F02CFAA8
:104D880009F10109049B28B1861B0120B0400343A7
:104D98000493EEE7D90644BF20228DF853201A0762
:104DA80044BF2B228DF8532022782A2A02D0079B51
:104DB80021460EE0039A111D12680391002A01DBB7
:104DC800079204E0524243F002030792049301342D
:104DD8000AE00C4622780131303A092A03D80A2021
:104DE80000FB0323F5E7079323782E2B19D163786B
:104DF8002A2B09D1039B02341A1D1B680392002B2E
:104E0800B8BF4FF0FF330BE0611C00230C4622783B
:104E18000131303A092A03D80A2000FB0323F5E7B9
:104E28000593224E21783046032200F0D5F930B19F
:104E3800861B4020B040049B01340343049321782F
:104E48001B480622661C8DF8281000F0C5F988B1A9
:104E5800184B33B9039B073323F007030833039335
:104E680014E003AB0093384604A92A46124BAFF36B
:104E7800008007E003AB0093384604A92A460E4B8E
:104E880000F08EF8B0F1FF3F804603D0099B434401
:104E9800099346E7AB895B0601D4099801E04FF016
:104EA800FF301DB0BDE8F0833E5A0008445A0008A0
:104EB800485A000800000000354C00082DE9F84366
:104EC80015461F468A680B6906469A42A8BF1346CC
:104ED8002B6091F843200C46DDF820800AB101339D
:104EE8002B602368990602D52B6802332B60236850
:104EF80013F006091DD094F843302268003318BF18
:104F0800012392061FD5E118302081F843005A1C6E
:104F180094F845102244023382F8431013E03046D7
:104F2800394604F119020123C047013007D009F1BD
:104F38000109E2682B68D31A9945F0DBDBE74FF0EB
:104F4800FF30BDE8F8833046394604F14302C047D4
:104F58000130F4D023682A6803F00603E168042BC3
:104F680008BFC2EB01052369A2680CBF25EAE575F5
:104F780000259A42C4BFC3EB0203ED184FF00009A5
:104F8800A9450ADA3046394604F11A020123C04716
:104F98000130D4D009F10109F2E70020BDE8F88317
:104FA8002DE9FF470E7E80466E2E0C4691469A46A6
:104FB8000C9D01F1430000F0A58011D8632E22D08A
:104FC80009D8002E00F0AF80582E40F0BF8081F83D
:104FD80045607B4A4FE0642E1ED0692E1CD0B5E098
:104FE800732E00F0A48009D86F2E2BD0702E40F0BD
:104FF800AD800B6843F020030B6038E0752E21D09C
:10500800782E34D0A2E02B6801F142071A1D1B68E4
:105018002A6081F842309DE022682B6812F0800FE8
:1050280003D01A1D2A601D6805E05106F9D51A1D1E
:105038002A60B3F90050002D39DA2D236D4284F827
:10504800433034E022682B6812F0800F03D01A1D19
:105058002A601D6804E05206F9D51A1D2A601D88C9
:10506800237E574A6F2B14BF0A2308231BE078239B
:10507800544A84F845302368296813F0800F01F1F9
:1050880004062E6001D00D6802E05F06FBD50D888E
:10509800DE0744BF43F0200323601DB9236823F0D3
:1050A800200323601023002184F8431001E0444AC0
:1050B8000A236668002EA66003DB216821F004013C
:1050C800216005B96EB104F14201B5FBF3F603FBAB
:1050D8001655555D0F4601F801593546002EF4D195
:1050E80000E00746082B0AD12368DD0707D5626868
:1050F80023699A4203DC302307F8013C013FC01BB7
:1051080020612CE009682B6811F0800F626904D0D7
:10511800191D29601B681A6005E04906F8D5191D94
:1051280029601B681A8000232361074617E02B6853
:105138001A1D2A601F68384600F04EF9636820611E
:10514800984288BF23612369636005E004F1420740
:1051580084F8426001232361002384F84330CDF8AA
:1051680000A04046214603AA4B46FFF7A7FE0130A0
:1051780002D14FF0FF301FE0404649463A462369C6
:10518800D0470130F5D023689B0705D4E068039B1E
:105198009842B8BF18460FE00025E268039BD31A6F
:1051A8009D42F3DA4046494604F119020123D047EB
:1051B8000130DED00135F0E704B0BDE8F08700BF6C
:1051C8004F5A0008605A0008024B0146186800F060
:1051D80079B800BFA000002010B5C9B202449042BF
:1051E800034605D01C7801308C42F8D1184610BD12
:1051F800002010BD10B50023934203D0CC5CC454EA
:105208000133F9E710BD814270B501D300230EE0E8
:105218008C18A042FAD28518134613F1FF3305D330
:1052280051426618F65C2944CE54F6E770BD9342A5
:1052380003D0CC5CC4540133F9E770BD30B5002904
:105248003CD051F8042C0B1F1D49002AB8BF9B18ED
:105258000A680C4612B95A600B6030BD93420DD2F1
:1052680019685818904203D15A5811444268196075
:105278005A60236030BD994203D80A465168002914
:10528800F9D1146815199D420AD11B682344D01816
:105298008842136012D10868034413604B680CE01D
:1052A80002D90C23036030BD18681C188C4203D146
:1052B8000C684968204418605960536030BD00BFCD
:1052C800B800002070B5CD1C25F0030508350C2D5D
:1052D80038BF0C25002D06463FDB8D423DD3214BC0
:1052E8001C6818462146A1B10B685B1B0ED40B2B1A
:1052F80003D90B60CC18CD501FE08C4202D16268F4
:1053080002601AE04B6863600C4616E00C46496878
:10531800E9E7154C23681BB9304600F04DF82060CA
:105328002946304600F048F8431C014615D0C41CF5
:1053380024F0030484420AD1256004F10B00231DE4
:1053480020F00700C31A0BD05A42E25070BD304615
:10535800611A00F031F80130EED10C2333600020DF
:1053680070BD00BFB8000020B4000020F8B50646A4
:1053780014460D4621B91146BDE8F840FFF7A2BF13
:105388001AB9FFF75BFF2046F8BD00F02DF8A042E0
:105398000ED230462146FFF795FF074650B1294601
:1053A8002246FFF727FF30462946FFF747FF01E06F
:1053B8002846F8BD3846F8BD38B5064C00230546E2
:1053C80008462360FBF78AFF431C02D1236803B118
:1053D8002B6038BDBC000020034613F8012B002ABF
:1053E800FBD1181A0138704751F8040C002802DA6A
:1053F80004390B58184404387047466C61736820A8
:105408004572726F720A0D00636F6D6D7574617409
:10541800696F6E4D6574686F6400696E7075744D60
:105428006574686F6400656E636F6465725F505081
:105438005200656E636F6465725F706F6C657300B0
:10544800656E636F6465725F636F756E74735F70AA
:1054580065725F73746570007069645F4B7000708B
:1054680069645F4B69007069645F4B6400706964CC
:105478005F464631007069645F4646320070696471
:105488005F6465616462616E640075736172745F04
:1054980062617564006D61785F63757272656E74C0
:1054A800006D61785F6572726F7200696E76657201
:1054B800745F64697273746570656E6100636F6DA3
:1054C8006D75746174696F6E5F6F6666736574007D
:1054D800636F6D6D75746174696F6E4D6574686F17
:1054E800643A2025640A00696E7075744D657468A5
:1054F8006F643A2025640A00656E636F6465725FA5
:105508005050523A2025640A00656E636F646572D4
:105518005F706F6C65733A2025640A00656E636F6F
:105528006465725F636F756E74735F7065725F73C5
:105538007465703A2025640A006D61785F6572723F
:105548006F723A2025640A00696E766572745F642A
:10555800697273746570656E613A2025640A00701B
:1055680069645F4B703A2025640A007069645F4B78
:10557800693A2025640A007069645F4B643A202503
:10558800640A007069645F4646313A2025640A005F
:105598007069645F4646323A2025640A007069647F
:1055A8005F6465616462616E643A2025640A00750F
:1055B800736172745F626175643A2025640A006DD4
:1055C80061785F63757272656E743A2025640A00AB
:1055D800636F6D6D75746174696F6E5F6F66667306
:1055E80065743A2025640A005354523A25643B25D1
:1055F800643B25643B25643B25643B25643B25646B
:105608003B25640D0053545245414D0053544152BB
:105618005400534554005341564500536176696E12
:10562800673A0A0D0053415645204F4B0A0D004773
:10563800455400436F756E743A2025642C204861E8
:105648006C6C3A2025642C206572726F723A2025A2
:10565800642C206D61785F6572726F723A202564E0
:105668000A0D0000000FC93F000F494000CB9640CB
:10567800000FC9400053FB4000CB164100ED2F41FD
:10568800000F49410031624100537B41003A8A4191
:1056980000CB9641005CA34100EDAF41007EBC41C8
:1056A800000FC94100A0D5410031E24100C2EE41DE
:1056B8000053FB4100F20342003A0A4200831042C1
:1056C80000CB164200141D42005C234200A529426B
:1056D80000ED2F4200363642007E3C4200C742426F
:1056E800000F4942A2000000F900000083000000FA
:1056F8006E0000004E00000044000000150000008D
:1057080029000000FC0000002700000057000000EE
:10571800D1000000F500000034000000DD000000AA
:10572800C0000000DB0000006200000095000000DF
:10573800990000003C0000004300000090000000B9
:1057480041000000FE00000051000000630000005E
:10575800AB000000DE000000BB000000C500000038
:1057680061000000B7000000240000006E00000087
:105778003A000000420000004D000000D200000086
:10578800E000000006000000490000002E000000B4
:10579800EA00000009000000D100000092000000AB
:1057A8001C000000FE0000001D000000EB000000CF
:1057B8001C000000B100000029000000A700000044
:1057C8003E000000E80000008200000035000000F4
:1057D800F50000002E000000BB000000440000009F
:1057E80084000000E90000009C0000007000000038
:1057F80026000000B40000005F0000007E000000EA
:10580800410000003900000091000000D6000000AF
:105818003900000083000000530000003900000038
:10582800F40000009C000000840000005F000000FD
:105838008B000000BD000000F900000028000000F7
:105848003B0000001F000000F80000009700000067
:10585800FF000000DE0000000500000098000000C6
:105868000F000000EF0000002F00000011000000F2
:105878008B0000005A0000000A0000006D000000C4
:105888001F0000006D000000360000007E000000D0
:10589800CF00000027000000CB0000000900000036
:1058A800B70000004F000000460000003F00000065
:1058B800660000009E0000005F000000EA00000093
:1058C8002D0000007500000027000000BA0000004D
:1058D800C7000000EB000000E5000000F100000038
:1058E8007B0000003D0000000700000039000000B8
:1058F800F70000008A00000052000000920000003B
:10590800EA0000006B000000FB0000005F000000E0
:10591800B10000001F0000008D0000005D000000C5
:1059280008000000560000000300000030000000DE
:1059380046000000FC0000007B0000006B00000037
:10594800AB000000F0000000CF000000BC00000029
:10595800200000009A000000F4000000360000005B
:105968001D000000A9000000E300000091000000F5
:10597800610000005E000000E60000001B0000005F
:105988000800000065000000990000008500000084
:105998005F00000014000000A00000006800000084
:1059A800400000008D000000FF000000D80000004B
:1059B800800000004D000000730000002700000078
:1059C800310000000600000006000000150000007D
:1059D80056000000CA00000073000000A800000084
:1059E800C900000060000000E20000007B00000029
:1059F800C00000008C0000006B00000004000000E4
:105A080007000000090000000000C93F0000F0394D
:105A18000000DA370000A2330000842E0000502B6B
:105A28000000C2270000D0220000C41F0000C61BCF
:105A3800000044174300232D302B2000686C4C00D5
:105A48006566674546470030313233343536373876
:105A580039414243444546003031323334353637D4
:105A680038396162636465660000202020202020A8
:105A780020202028282828282020202020202020F6
:105A880020202020202020202020881010101010F6
:105A98001010101010101010101004040404040446
:105AA8000404040410101010101010414141414129
:105AB800410101010101010101010101010101018E
:105AC800010101010110101010101042424242421F
